:1010000000000120751300005D1300005F13000055
:10101000611300006313000065130000000000006E
:101020000000000000000000000000006713000046
:1010300069130000000000006B1300006D13000036
:101040006F1300006F130000493400006F1300009D
:101050006F1300006F130000FD3200006F130000DB
:101060006F1300006F1300006F1300006F13000078
:101070006F1300006F1300006F1300006F13000068
:101080006F130000FD2700006F1300006F130000B6
:101090006F1300006F1300006F1300006F13000048
:1010A0006F1300006F1300006F1300006F13000038
:1010B0006F1300006F13000000000000000000002C
:1010C0006F1300006F1300006F1300006F13000018
:1010D0006F1300006F1300006F130000000000008A
:1010E0000000000000000000000000000000000000
:1010F00000000000000000000000000000000000F0
:1011000000000000000000000000000000000000DF
:1011100000000000000000000000000000000000CF
:1011200000000000000000000000000000000000BF
:1011300000000000000000000000000000000000AF
:10114000000000000000000000000000000000009F
:10115000000000000000000000000000000000008F
:10116000000000000000000000000000000000007F
:10117000000000000000000000000000000000006F
:10118000000000000000000000000000000000005F
:10119000000000000000000000000000000000004F
:1011A000000000000000000000000000000000003F
:1011B000000000000000000000000000000000002F
:1011C000000000000000000000000000000000001F
:1011D000000000000000000000000000000000000F
:1011E00000000000000000000000000000000000FF
:1011F00000000000000000000000000000000000EF
:10120000354936480A1A02D0072291438D4634499F
:1012100034480A1A06D00722914381F30988022232
:1012200082F3148830483149314A00F044F831489B
:101230003149324A00F03FF831483249324A00F031
:101240003AF832483249334A00F035F832483349E7
:10125000334A00F030F833483349344A00F02BF871
:1012600033483449344A00F026F8344834490022DF
:1012700000F02CF833483449002200F027F83348B6
:101280003349091A082902DB002202604160314A11
:1012900090471F481F49884205D00268043003B4B4
:1012A000904703BCF7E700208646EC46002000216B
:1012B000294A9047FEE7884207D0521A05D00378A2
:1012C00001300B700131013AF9D17047884202D0E8
:1012D00002700130FAE770470000012000E00020B2
:1012E0000000012000000120984F000008000020AD
:1012F000C8000020D0130000D01300001C480000DC
:10130000984F0000080000200800002080480000DE
:1013100080480000804800008048000080480000AD
:10132000804800008048000080480000984F00007E
:1013300058500000C8000020C8000020C80000204D
:10134000360800203808002038080020380800201F
:10135000382800209D13000035420000FEE7FEE71C
:10136000FEE7FEE7FEE7FEE7FEE7FEE7FEE7FEE755
:1013700000F002B8FFF7FCBF0F484FF007018843A9
:1013800085460E4880470E48016841F470010160AF
:10139000BFF34F8FBFF36F8FFFF732BF09480A4982
:1013A0000A4A884207D0521A05D0037801300B70E0
:1013B0000131013AF9D1704700000120E1420000FB
:1013C00088ED00E0804800000800002008000020B0
:1013D000F0B595B01D46164608460C4601F08CFD4A
:1013E0001A9B0D93CDE9086500252B46082205A917
:1013F00020460A958DF82C500C9501F099FD079B1D
:101400000293069B03939DF814308DF8115003F05E
:101410000302012A1DD1BDF81420059DC3F3C203A8
:10142000C2F383168DF81030B20008230EA92046AF
:1014300001F07EFDC5F3952508AB0093324602AB63
:101440000EA9284600F09AFB204601F059FD15B080
:10145000F0BD022AF8D1BDF81650C3F3C203C5F39C
:1014600089158DF810300827082D2E4628BF08262C
:101470003B4632460EA9204601F05AFDAD1B08AB93
:1014800002AA31460EA8374400F0DCFB002DEBD158
:10149000DAE70000014B01221A70704709010020B1
:1014A0007047000070B50E4D06460FCD88B06C46F3
:1014B0000FC495E80F00002E84E80F00094A0A487F
:1014C0004FF0060308BF00226946009301F09EFD1D
:1014D00008B100F003FE054B1E7008B070BD00BFE0
:1014E000804800009514000008000020C80000207B
:1014F00007B5044B0093044A4023FFF769FF03B08C
:101500005DF804FB0D150000C900002038B50D483A
:101510000D4C0E4D002323700378EB5CD2B263B107
:10152000043002F019FC08B100F0D8FD084B1A781D
:1015300012B12378002BFBD038BD0C3002F0BAF981
:10154000F1E700BF08000020090100205C0700202F
:10155000C800002008B50848084A0378D35C3BB1AE
:10156000043002F05DFBBDE808400020FFF79ABFA1
:101570000C3002F029F9F6E7080000205C07002093
:101580000120FFF78FBF000008B5FFF7F9FF0448FF
:10159000042100F05DFA034B01225A7108BD00BF1F
:1015A0005C4800001C000020037813F0040216D0F1
:1015B00003F00303012B03D0022B09D00120704755
:1015C0000A6800880232C0F3831002440A60F5E71B
:1015D0000B684288023303EB92130B60EEE7104670
:1015E000704700002DE9F04FDFF810A10F4685B0DD
:1015F0000446861C0020154600F0C8FFDAF80420D7
:101600003A60DAF8083003F580739B1A0AF21C4737
:101610000AF583690AF21448B34219D30020002D59
:1016200068D004F00F039B0143F0050363F30F0040
:10163000DAF80430DAB2033233444AF822000020E8
:10164000CAF8043000F0A4FF012005B0BDE8F08F17
:101650000121384601F087F9484601F09CF94046DF
:1016600001F099F9DAF808000090C0B203300AEBF3
:1016700080006946FFF798FF009B30BBDAB20AEBA7
:101680008202D16801919A1C0133DBB20AEB830319
:101690000092D3F80CB001F00303012B22D0022BEF
:1016A00015D08346404601F079F910B1009BCAF885
:1016B00008305946384601F056F9DAF80830DAF8B9
:1016C000042003F580739B1AA6E7D8B2CEE7BDF8D5
:1016D0000630C3F3891303334FEA1B4B02EB93032A
:1016E0000093DFE7BDF80430C3F383134FEA1B4BCD
:1016F0001344F5E7A40544F0060099E7DC01002057
:10170000064B074810B500221A7001F0AEFB0446E4
:1017100010B9044801F016FC204610BDDC01002081
:101720006C480000D448000030B50A4C71B10A4A38
:101730000A49121BD20800239A4201D1002030BD71
:1017400031F82350854202D00133F5E7034654F8BF
:101750003300F4E71C4800005C480000080000204B
:10176000094B013903EBC000032909D8DFE801F078
:101770000A020406042070470079704740797047D8
:1017800000207047022070471C480000704700008E
:10179000034BD3E90130C31A58425841704700BF88
:1017A000DC0100202DE9FF41FFF7F2FF054600288C
:1017B00040F0E980754CC4F81804BFF34F8FA3685C
:1017C0000093DBB2033304EB83006946FFF7ECFEC2
:1017D000009B18B1D4F81824002A5AD0DAB2991C08
:1017E000013304EB8202DBB204EB8303D268DB68D3
:1017F000029302F00303022B0192009154D1BDF831
:1018000006306348C3F38917502F3E4628BF502641
:1018100006F1080166F38F13C1F30901ADF8063034
:1018200001F03BFB0546002800F0988001F064FBC6
:101830000023082201A9284601F070FB0099CB4340
:10184000DBB20133C9B20331B6EB830F4FEA830237
:1018500004EB810125D95FFA82F80823A6EB08067C
:10186000284601F05BFBF6B208F10803494903F092
:10187000FC033246284601F051FB009B033703EB83
:1018800097070097D4F81834002B43D1D4F810648C
:1018900053E062689A4294D8A260284604B0BDE83A
:1018A000F08108233246E5E7012B57D1BDF804301B
:1018B0003748C3F38311062928BF062161F3891332
:1018C000023101F00F018900ADF8043001F0E5FAB2
:1018D0000546002842D001F00FFB0023082201A991
:1018E000284601F01BFB0026BDF80420C2F383123A
:1018F000B300964203F10803C4D200994A1CC9B24E
:101900000331009204EB81010422284601F006FB1A
:101910000136E9E7284601F0F3FAFFF739FF80F0D6
:101920000100C5B2B9E7F3685B7923B13368294692
:101930001B6830469847F3681E68002EF3D128468E
:1019400001F0DEFA304600F021FED4F818340BB96D
:10195000009BA360002000F01BFEDEE7D4F81044DB
:1019600054B90D4B0D480E49C01AC008000440F090
:10197000020000F05FF8D0E7236820469B68984794
:10198000E3681C68ECE7002587E700BFDC01002066
:101990006C480000E80100201C4800003C480000A2
:1019A000BD4800002DE9F34704460E46924601A9C2
:1019B000012218469946FFF715FE1C4F10B3019DF2
:1019C0004FF00008AA1CC84508EB020125D11848B1
:1019D000002100F0A5FF80F31000000440EA14404D
:1019E000E4006B1C04F03804DBB2EDB244F00104F7
:1019F00007EB8303033544EA881444EA8624D8605D
:101A000047F825403B781BB1FFF7CCFE0028FBD1FF
:101A1000FFF7BCFE02B0BDE8F087C9B207EB810159
:101A20005AF82830CB6008F10108CCE7DC0100202F
:101A3000F805002000231A46FFF7B4BF07B50123BD
:101A4000019201AAFFF7AEFF03B05DF804FB0000AE
:101A500030B50F4CD4F8102403460020114631B99C
:101A6000D96808714AB9C4F810340A6030BDC96831
:101A70000D79854206D00968F1E7D26814680C60D8
:101A80001360F3E701300A28E8D14FF0FF30EDE7AB
:101A9000DC01002038B5084B0125D3F810441D7037
:101AA00004B938BDE3685D71236820465B689847D8
:101AB000E3681C68F4E700BFDC01002030B5C38890
:101AC00085B004460D4633B1144A00921449154AB4
:101AD000284600F0BDFF217A05291DD0637A4BB15D
:101AE000A088FFF73DFE104B104953F820202846F0
:101AF00000F0AEFF227A0E4BA08853F8222003920A
:101B00000021FFF711FE039A0A490346284605B053
:101B1000BDE8304000F09CBF05B030BD004900007A
:101B2000E8480000E04800006C490000054900005A
:101B3000904900000849000007B503460846197A95
:101B4000052911D05B7A2BB1094A0A49019000F0AE
:101B50007FFF01980849019000F07AFF019803B0D7
:101B60005DF804EB00F069BF002AF8D0F2E700BF8F
:101B70000049000005490000FD4800002DE9F04340
:101B800085B01F460C9D002395F80C902B730646DC
:101B90000C46904629463846FFF790FFB8F1060FED
:101BA00009D8DFE808F00412181F28334000314636
:101BB000284600F04DFF002229463846FFF7BCFFBB
:101BC00085F80C9005B0BDE8F083226831462846C0
:101BD00000F03EFFEFE7D4E900233146284600F04D
:101BE00037FFE8E7A36800933146D4E9002328468D
:101BF00000F02EFFDFE7E3680193A368009331460E
:101C0000D4E90023284600F023FFD4E72369029398
:101C1000E3680193A36800933146D4E90023284682
:101C200000F016FFC7E76369039323690293E36833
:101C30000193A36800933146D4E90023284600F0BD
:101C400007FFB8E708292DE9F74F80460E461746EB
:101C50001C463CD8002593F80C901D73194610467D
:101C6000FFF72CFFDFF888A0DFF888B0AE4231D94B
:101C700018F805205946204600F0EAFE0135082DE7
:101C8000F4D11949194DDFF870A0204600F0E0FEAC
:101C90004FF0000B5E4522D918F80B207E2A05D89C
:101CA0001046019202F028FD019A00B92E225146F9
:101CB000204600F0CDFE0BF1010BBBF1080FE9D17E
:101CC000012221463846FFF737FF84F80C9003B015
:101CD000BDE8F08F5146204600F0BAFECEE7294617
:101CE000204600F0B5FEE6E71C4900001A49000056
:101CF00018490000124900001E490000054A4FF033
:101D0000A043105CD3F8043523FA00F0C04300F080
:101D100001007047A4490000044B1A5C0123934062
:101D20004FF0A042C2F80C35704700BFA449000034
:101D3000044B1A5C012393404FF0A042C2F80835CF
:101D4000704700BFA449000008B50020FFF7F0FF6E
:101D50000120FFF7EDFF0220FFF7EAFFBDE8084092
:101D60000320FFF7E5BF08B50020FFF7D5FF0120EE
:101D7000FFF7D2FF0220FFF7CFFFBDE808400320A6
:101D8000FFF7CABF074A4FF0A041105CD1F80435F5
:101D90000122824022EA03001340C1F80805C1F87D
:101DA0000C357047A44900000D2809D00E2809D031
:101DB0000F2809D010280CBF03204FF0FF307047C8
:101DC000002070470120704702207047C20708B505
:101DD00001460CD54FF0A0430322C3F84427C3F8B3
:101DE0004827C3F84C27C3F85027FFF7ADFF8B07F0
:101DF0000AD54FF0A0430C22C3F83427C3F8382784
:101E0000C3F83C27C3F8402708BD0000C30710B53E
:101E100007D4F023054A4008145C234019431154A9
:101E200010BD0901C9B20F23F4E700BFA8060020C6
:101E300030B5094B1C78094B196800239C4202DC21
:101E40000022104630BD11F83350854201EBC30229
:101E5000F7D00133F2E700BF94060020B806002057
:101E600013B504460191FFF7E3FF38B143682BB186
:101E70000199204602B0BDE81040184702B010BDDD
:101E8000034B044819680022490800F03FBA00BF1C
:101E9000980600202800002010B5C0B2FFF7C8FF48
:101EA0000446007801F020FA63785A1E53425341E9
:101EB000834208D1044BD3E90023134303D1BDE887
:101EC0001040FFF7DDBF10BDA006002038B5334A33
:101ED00043080446D35CC2074CBF1B0903F00F0341
:101EE0000D46042B59D8DFE803F003222A363900C7
:101EF000002952D00121FFF789FF002000F046FBA6
:101F00000120A4F12003C4F12001254A20FA01F1A7
:101F100000FA03F30B43A040D2E9004120430B43F6
:101F2000C2E90003BDE83840002000F031BB0029C1
:101F300018BF02212046BDE83840FFF767BF41B116
:101F40000321FFF763FF20460121BDE83840FFF77A
:101F500087BF0121EEE701BB0421EBE709B10321B3
:101F6000E8E7FFF753FF29462046FFF779FF2846A9
:101F700000F00CFB0120A4F12003C4F12001084A69
:101F800020FA01F100FA03F30B43A040D2E900412B
:101F900024EA000021EA0303C2E738BDA8060020B6
:101FA000A00600202DE9F041124E134F0024337893
:101FB000A34208DC114BD3E90023134318D0BDE83A
:101FC000F041FFF75DBF3D6805EBC40815F834002C
:101FD00001F08AF998F801305A1E53425341181AF9
:101FE0004142414115F83400FFF770FF0134DEE74C
:101FF000BDE8F08194060020B8060020A00600206D
:10200000092AF7B505460C4616463ED901F0A4F854
:10201000E8B11F4B1F481D601F4B204F1C70204B09
:10202000002110221E6002F095FB1E4B00200021B3
:10203000C3E90001013CE4B20326FF2C0DD11A4A8A
:102040001A48002103B0BDE8F04000F04DB901F09E
:1020500045F80028DDD003B0F0BD9DF8063015F836
:1020600034008DF8046005EBC40223F007038DF8FB
:10207000063001A993788DF805303A4601F076F8DC
:10208000013CE4B20028D8D0E5E70720E3E700BF31
:10209000B8060020A806002094060020991E000023
:1020A00098060020A0060020A51F0000B4490000EB
:1020B00070B5084D084E00242B789C4201D30020B7
:1020C00070BD3368012113F8340001F0C7F8013402
:1020D000F2E700BF94060020B80600201FB50021DB
:1020E000039001AA44F20100CDE9011100F004F8C7
:1020F00005B05DF804FB000038B572B6FFF7CAFC06
:10210000FFF750FB0028FBD1104B114C114D124929
:10211000E41AE408240444F00100FFF78BFCD5F82E
:10212000F030DB0700D500BE0C4944F00200FFF799
:1021300081FCBFF34F8FEA68094B02F4E06213435E
:10214000EB60BFF34F8F00BFFDE700BF1C480000EE
:102150003C48000000ED00E0B8490000C449000020
:102160000400FA0510B5D0E90243D1E90202A04209
:1021700072EB03032CBF0120002010BD08B50A48F4
:1021800000F025FB094AD2E90031C018084BD3E919
:10219000002341F10001904271EB030303D210F1DF
:1021A000807041F1000108BD48000020C0060020F9
:1021B0003807002037B505460C460A4801A900F04B
:1021C0003AFB60B10570446001A9064800F05DFB70
:1021D00018B1054800F000FB002003B030BD04201A
:1021E000FBE700BF2407002048000020234B70B508
:1021F0001E78044616B90026304670BD0028FAD075
:10220000FFF7BCFFD4E90223904299412FD300206D
:1022100000F0BCF923692BB94FF0FF324FF0FF33C8
:10222000C4E90223002000F0B3F9D4E9053098474F
:10223000002000F0ABF925696DB1D4E90212B2F1CA
:10224000FF3F08BFB1F1FF3F0FD0691842F1000214
:10225000C4E902123546002000F09AF9002DCAD0D8
:102260000748214600F077FEC6E70025F3E7B3F103
:10227000FF3F08BFB2F1FF3FBDD0F1E7C806002025
:10228000E049000013B5114B11491868019008236B
:102290001048582200F0BCFA044698B90E4A0F487C
:1022A00001A900F085F9044660B90C48012100F04D
:1022B00071FA01230A4A0948194600F0D3F9094B7B
:1022C00001221A70204602B010BD00BFDC49000098
:1022D000CC06002024070020B12300004800002085
:1022E000FFFF7F00C806002030B56AB103684FF0D9
:1022F000FF344FF0FF355A614A1E5142C3E902458F
:1023000051411961002030BD0720FCE7F8B50446B3
:10231000002017460D4600F039F9D4E90223B3F145
:10232000FF3F08BFB2F1FF3F15D1FFF727FF281885
:1023300041F10001C4E902010126002000F028F962
:102340005EB12369A76103B1256121460020BDE884
:10235000F840FFF72FBF0026EFE73046F8BD38B54D
:102360000446002000F012F9D4E90223B3F1FF3F44
:1023700008BFB2F1FF3F1FBF4FF0FF324FF0FF33F6
:10238000C4E90223012508BF0025002000F000F960
:102390002DB121460120BDE83840FFF70BBF28468C
:1023A00038BD0000014800F012BA00BF480000200C
:1023B0002DE9F743064600F0F5F940B1624AD2E94B
:1023C000003113F1807341F10001C2E900310021B5
:1023D000304600F0F6F938B15C4C236823B1206830
:1023E000FFF704FF002323600121304600F0E9F9E4
:1023F00020B1FFF7C3FE564BC3E900015548534CCB
:1024000001A900F052FA4FF0FF384FF0FF39A0B9A0
:10241000DFF844814D4D404600F0B3FD002800F048
:102420008580D0E90223B3F1FF3F08BFB2F1FF3F3F
:1024300032D1404600F09FFDEDE70378012B20D01C
:10244000022B08D1444D284600F095FD002877D096
:10245000C0E90289F7E75BB94168D1E90223B3F12A
:10246000FF3F08BFB2F1FF3F02D03B4800F073FDD1
:1024700001A9384800F044FA01A9364800F015FADD
:10248000C5E741682368994202D100232360EFE742
:10249000314800F079FDEBE7296891B12968D1E96D
:1024A000020182428B412FD22B68D3E90223B3F180
:1024B000FF3F08BFB2F1FF3F03D02968404600F05C
:1024C0004AFD404600F057FDD0E902490746FFF7B4
:1024D00055FE201A69EB0109012879F1000318DB88
:1024E000B0F5350F13D3FFF75DFF1C4A02441C48BB
:1024F0004FF49603002100F0D5F890B92B6813B97A
:10250000304600F0A7F82F6003B0BDE8F083224604
:10251000EDE71348002100F04AF93846FFF766FE60
:1025200001E00D28F9D000232B6074E7074B1B68EE
:10253000002BE9D1304603B0BDE8F04300F08EB87F
:10254000084B01221A7093E7C006002040070020C4
:102550003807002024070020E0490000FFFFB400F6
:1025600048000020C806002072B6024A13680133F2
:102570001360704744070020034A1368013B13604F
:1025800003B962B6704700BF44070020FFF7ECBFF5
:10259000FFF7F2BF435882B03BB10023435043588A
:1025A0000193019B012002B070471846FBE7000031
:1025B000F8B5204B4479204E43F824201F4A204B85
:1025C00006EBC4049B1A2279DB081B0432B143F0EA
:1025D00002001C49FFF72EFA0820F8BD02680C889B
:1025E000C2F8084590F904508A7804795201002D08
:1025F000D2B219DB14494F1987F8002301226D0963
:1026000004F01F0402FA04F441F82540427906EB75
:10261000C201012446F832000C7143F003000B495B
:10262000FFF708FA0020D8E7094904F00F040A551B
:10263000ECE700BF50070020480700201C480000BE
:102640004C480000EC49000000E100E00E4A0000A8
:1026500014ED00E0036801221A607047036801224C
:102660005A60704773B501F15005AD000068ADB216
:102670004FF480348C400026C0F80843C0F848432B
:10268000465101F5A8714559019522F07F42019DFF
:1026900040F82120C0F844430BB1C0F8044302B015
:1026A00070BD00002DE9F74F0D4622F07F4402680F
:1026B0004FF4803705F150068F408046B60002EB9C
:1026C0008500C2F84873B6B2C2F80873D2F8041590
:1026D00099464FF0000BD0F84035C0F8401542F84D
:1026E00006B05B1A9259009223F07F43012B009AA7
:1026F0004FEA850A0CD1264B4FF4806043F001036A
:102700009847D8F8003043F806B09B590193019BD5
:10271000D8F80010D1F80465C1F84473A31B23F066
:102720007F43012B1CD11A4B05F5A875013443F0EA
:10273000010341F825404FF480609847D8F80030F5
:10274000D3F804359E4209D1D8F800300020C3F8F0
:102750004473C3F8047303B0BDE8F08F0D20FAE7AB
:102760008A44C9F1FF13CAF84045D1F80405221A7A
:10277000013A22F07F4203F57F439342EED3002AD1
:10278000E2D10134CAF84045D1F804359842DAE77D
:10279000204A000003680222C3F8442309B1C3F8A9
:1027A0000423704700684FF48271FFF7F3BE4FF4C3
:1027B000803303FA01F10368C3F84813C3F8081320
:1027C000704750318900006889B2FFF7E3BE0368A3
:1027D000D3F804057047000090F90430002B09DBA2
:1027E0005A09012103F01F0301FA03F340320249A1
:1027F00041F82230704700BF00E100E0024B034A7D
:102800001B681068184700BF5007002048070020C9
:1028100010B561B1B2FBF3F403FB1424A4B244B9C4
:10282000C0E9001484608281C381204610BD0E205F
:10283000FCE70920FAE737B550E8013F9DB2C489AB
:1028400025448489A54228BF2D1B0489A54202BFC7
:10285000BFF32F8F002207E0C5EA030540E80154CB
:10286000002CE9D14FF001028DF803200193019A69
:102870000A609DF8031001F0FF0321B1006810FA0F
:1028800082F003B030BD1846FBE70A884B889A42B5
:1028900009D150E8012FC2EA024240E80123002B8F
:1028A000F7D1012070470020704737B550E8023F4C
:1028B0001FFAA3F5C488A54202BFBFF32F8F0022E1
:1028C0000DE0C48925448489A54228BF2D1BC3EA95
:1028D000054540E80254002CE8D14FF001028DF884
:1028E00003200193019A0A609DF8031001F0FF0391
:1028F00021B1006800EB124003B030BD1846FBE781
:102900000A884B889A4209D150E8022FC2EA224233
:1029100040E80223002BF7D10120704700207047C8
:1029200010B5034653E8000F0A4643E8002494F02C
:10293000000FF7D110BD10B5034653E8002F42EA4F
:10294000010043E8000494F0000FF6D110BD10B56B
:10295000034653E8000F00EA010243E8002494F024
:10296000000FF6D110BD10B5034653E8002F02EB5F
:10297000010043E8000494F0000FF6D110BD10B53B
:10298000034653E8002FA2EB010043E8000494F053
:10299000000FF6D110BD0121FFF7CDBF0021FFF7D9
:1029A000D6BF10B590B1D0E9012301689B1ADBB204
:1029B0000A60013BDBB2FF2B026802D100201071DC
:1029C00010BD11684C1C14600B70F2E70E20F7E785
:1029D00038B504460020FFF7D9FD22686368116806
:1029E000994213D9481E106011F8013CE568218A0C
:1029F00001FB0355A36811791B1ADBB2994200D27F
:102A000013710020FFF7C4FD284638BD0025F8E704
:102A100038B5054600200C46FFF7B8FD2A68136854
:102A2000591C1160E968641A298AB4FBF1F41C701E
:102A3000BDE838400020FFF7ABBD826810B5044602
:102A40002AB143690168006998470023A36010BD5B
:102A50000EB403B5039921B104AB01AA019300F0B0
:102A600077F802B05DF804EB03B070470A2938B577
:102A700004460D4602D10D21FFF7F8FFA368226836
:102A8000591CA160D554D4E901329A4204D320469E
:102A9000BDE83840FFF7D1BF38BD00002DE9F84F41
:102AA0009846DDE90A43154682460F460A464FF02E
:102AB0000109AA420FD2C14538BFC14613F0010B2C
:102AC00001D16CB900240126B8F1010F1BD908F11E
:102AD000FF386E43F8E709F10109B2FBF5F2E8E7C8
:102AE0009B070ED5B8F1000F0CBF30262026A1455C
:102AF000E9D2013C31465046FFF7B8FF002CF6D131
:102B0000E0E72026F3E7B7FBF6F39D42E1D9DFF8D3
:102B10003C80B7FBF6F3504618F8031006FB13771A
:102B2000FFF7A4FF3346AB42B6FBF5F6F1D2BBF19B
:102B3000000F02D00CB1A14501D3BDE8F88F2021D0
:102B40005046013CFFF792FFF4E700BF264A000021
:102B50002DE9F74F054617468846002900F03E81CB
:102B600018F8011B49B92B7B002B00F03781284650
:102B700003B0BDE8F04FFFF760BF252940F0B780F4
:102B8000002698F800302D2B424608F1010823D08A
:102B9000302B24D02B2B25D000242A2B02F101012D
:102BA00023D13B681A1D1B683A601C440A461378FF
:102BB0002E2B26D101324FF0000A104610F8011BCF
:102BC000A1F1300CBCF1090F1DD80A2303FB0A1335
:102BD000A3F1300A0246F0E746F00106D1E746F0DD
:102BE0000206CEE746F00406CBE711F8013CA3F15C
:102BF00030000928DBD80A2202FB0434303C0A46A4
:102C0000CBE74FF0000A12F8011B01F0FB00682827
:102C10009046F8D0782909D86F290CD8632962D05A
:102C200022D8252963D0582900F0888098F80030F0
:102C3000002B95D197E770390829F7D801A353F8ED
:102C400021F000BFB72D00002D2C00002D2C00001E
:102C50004D2D00002D2C00002B2D00002D2C0000F0
:102C60002D2C00003D2D0000642901D06929DDD103
:102C70003A68D2F80090111D89EAE9723960A2EB36
:102C8000E9724FF0010B092A35DCD34538BFD34632
:102C90002CB1B9F1000F01DB720700D5013CB3077D
:102CA00002D5BAF1000F03D0F00701D44CBB0024C9
:102CB000B9F1000F2DDAC9F100092D212846FFF7DF
:102CC000D5FE06F00302022A04D1BAF1000F01D1A9
:102CD0001CBB0024CDE9004653460A22494628463B
:102CE000FFF7DCFEA2E73B681A1D19783A60284618
:102CF000FFF7BCFE9AE70A230BF1010BB2FBF3F2DC
:102D0000C1E7A345D4D220212846013CFFF7AEFEFF
:102D1000CCE77107D5D52B21D0E7A345DAD23021F6
:102D20002846013CFFF7A2FED2E73968CDE900460C
:102D30000A1D3A6053460A220968D0E739680A1D1D
:102D40003A60CDE9004653461022F5E73B681A1D6C
:102D50003A6016F00106D3F8009024D1B9F1000FC3
:102D600003D0484601F029FD0646B4421DD809F1BA
:102D7000FF3919F8011F00293FF458AF2846FFF723
:102D800075FEF6E728460136FFF770FE19F80610C3
:102D90000029F7D1A642BFF449AF20212846013CC3
:102DA000FFF764FEF6E70026F0E720212846013C05
:102DB000FFF75CFED9E73B681A1D3A6030212846D0
:102DC0001C68FFF753FE78212846FFF74FFE0022CC
:102DD0000823CDE900322146102280E703B0BDE888
:102DE000F08F00BF2DE9F84FB0F806A04579D2F872
:102DF00000B09DF828900AFB05F5043D88460BEBD2
:102E00000301A94203F1040488BFA5EB030BB4FB43
:102E1000FAF607460AFB1644C2F800B04EB9AAEB10
:102E200004055D4528BF5D46BBF1000F04D1BDE838
:102E3000F88F3F68013EF1E7043408EB06003C449C
:102E40002A46B9F1000F0DD02146ABEB050B01F07E
:102E500058FCDA452E443F6855464FF0000428BF21
:102E60005D46E1E701462046EFE7FFF79ABDF8B57A
:102E700046790146721E0546002393422D6803D30E
:102E80000024A64202D8F8BD0133F6E70F682846B1
:102E9000FFF7BEFD01343946F3E72DE9F843068A12
:102EA000CD1C0746FFF794FD043E35440446B5FBB0
:102EB000F6F5F0B14FF48073EDB28380C680013D2A
:102EC000076081464FF00008A84512D23846FFF748
:102ED0007FFD064648B163790133637108F101084B
:102EE000C9F8000007608146EEE72046FFF7BFFF04
:102EF00034462046BDE8F88301210430FFF733BD96
:102F000010B5012104460430FFF739FDC0B220B9E5
:102F10002046BDE81040FFF7AABF10BD1FB50392C1
:102F20000022009203AAFFF75DFF05B05DF804FBE5
:102F30001FB503920122009203AAFFF753FF05B0C9
:102F40005DF804FB836800225A60C3E904229A609A
:102F5000DA601A60704770B5446806460D4620680E
:102F600018B1B3682946984718B923682B602560C3
:102F700070BD2468F3E74368186808B102681A60F6
:102F800070474368186870474368186800B970470D
:102F9000884203D102681A60012070470346006826
:102FA000F4E700001FB503788DF800304368019303
:102FB00083688DF80830C368054A0393054B68465B
:102FC00053F8213052F82110984705B05DF804FB02
:102FD00054070020580700201FB503788DF80030F3
:102FE0004368019383688DF80830C368054A0393EA
:102FF000054B684653F8213052F82110984705B028
:103000005DF804FB5407002058070020F0B5194B69
:1030100090F800C091F81DE043F82C20164B16469E
:103020000A6943F82C20154B03F80CE00C460746C0
:103030000FCC89B06D460FC594E80F0085E80F00EE
:10304000CDF810C0BEF1000F09D0002E0C4A694621
:1030500008BF3246381D00F021FD09B0F0BD002E3A
:10306000084A694608BF324607F10C0000F0F8FA3A
:10307000F3E700BF58070020540700205C0700203A
:10308000A52F0000D92F000000F1804000F5C040BE
:10309000002382B0036003680193019B02B0704774
:1030A000800000F1A040D0F8002722F44032C0F8A0
:1030B0000027D0F8003743EA0141C0F800177047F5
:1030C000054B4FF0FF32072843F8202084BFC0187B
:1030D00080F84820704700BF6007002010B51A4CE8
:1030E00094F858306BBB4FF0FF3222FA03F1C90756
:1030F00048BFE11803F1010348BF81F83020202BBD
:10310000F3D10021C8B20131FFF7DAFF0C29F9D160
:10311000042200210D4801F01DFB0D4BC02283F855
:10312000062340221A604FF4BE70FFF7ADFF094B33
:103130004FF00042C3F80423012384F858300020E4
:1031400010BD0820FCE700BF60070020B407002086
:1031500000E100E000600040034B93F858000038A5
:1031600018BF0120704700BF60070020F0B5394E3E
:10317000331893F93030002B69DA8D78C5F34005A8
:10318000002D0BBF082300230C240824A34201D1E7
:103190000420F0BD56F82370013743D137185CB2D4
:1031A00046F8232087F8304015B9F21882F8480015
:1031B0008A78550716D4D70736D5820002F1A04287
:1031C000D2F8005725F00205C2F80057224FC50873
:1031D00000F0070C012202FA0CF217F805C042EACF
:1031E0000C027A558A780D7812F0020225D09B00E5
:1031F00003F1804303F5C0430002D3F8102522F405
:10320000473222F44072C3F810252D04D3F810255C
:1032100000F4F85005F4403528431043C3F8100576
:103220000020B6E70133B1E74D7800F5E0724FF0CA
:10323000A047AD0047F82250C8E7083C46FA84F49E
:1032400094F8500040EA851584F85050E8E70820CB
:103250009FE700BF60070020B407002038B5204C6E
:10326000251895F93020072A18DD083A44FA82F427
:1032700094F850309B09032B0BD14FF0A043D3F8A7
:103280001015C14001F001010231BDE83840FFF7DF
:1032900007BF012B0CBF02210321F6E7D3B2072B96
:1032A0001DD8930003F1804303F5C043D3F8100504
:1032B00040F00100C3F8100502F1400040B2800068
:1032C00080B2FFF7E1FE51B195F9303054F8233068
:1032D0002BB1012303FA02F2024BC3F8042338BDD9
:1032E00060070020006000404FF0A043D3F8103585
:1032F00023FA00F000F00100704700002DE9F74FBD
:1033000000244E4D01944FF48072012102F180435C
:1033100003F5C04390B21B68012B06D1D5F80433E6
:103320000B4202D0FFF7B0FE0C430432B2F5907F9F
:103330004FEA4101EAD1414BD3F87C31012B0CD14A
:103340004FF4BE70FFF7A0FE4FF0A04344F00044DE
:10335000D3F820250192C3F82025E3B2D3B1384F2A
:1033600000250126344210D0AB0003F1804303F561
:10337000C043D3F81005D3F8101557F8253023B102
:10338000C1F30141C0F3042098470135082D4FEAED
:103390004606E7D1002C48DA294D4FF0A048294EC7
:1033A0004FF00009012716F9013B5A1C31D0C3F335
:1033B000C20202A90A44DCB212F8042C03F03F0A4C
:1033C00003F0070307FA03F31A4222D00AF5E07369
:1033D000504658F82330C3F3014BBBF1020F0CBF2A
:1033E00003210221FFF75CFE07FA0AF3C8F8203533
:1033F00005EB0A0393F9303055F823304BB1A1099E
:10340000032904D0BBF1020F12D1012901D150468A
:10341000984709F10109B9F1040FC4D1D8F8203552
:103420000193C8F82035002BB9D103B0BDE8F08F67
:10343000BBF1030FEDD10229E8E700BF00600040B7
:1034400060070020B0070020014B1B68184700BF31
:10345000BC07002038B50B4B98420C4601D0002029
:1034600038BD0020FFF792F8074B1D7915B90122EE
:103470001C601A710020FFF78BF8002DEFD011208F
:10348000EEE700BF00200040BC070020034B98423D
:1034900001BF034B00221A601A71704700200040E0
:1034A000BC0700200023435082B043580193019B86
:1034B00002B070470A4610B54FF48E71FFF7F2FF65
:1034C000136A9168C95C136A01331362C0F81C1552
:1034D00010BD8B690A4610B54FF4847123B9FFF70C
:1034E000E1FFD0F8183510BDFFF7DCFF536AD16853
:1034F000D0F81805C854536A01335362F3E700004B
:103500001FB501238DF80030044BCDE90110D3E93C
:1035100000126846904705B05DF804FBC407002020
:1035200030B54D4DD5F804339A0585B051D5D5F851
:103530002431002B4DD04FF492712846FFF7B2FF93
:103540004FF40173C5F80833444B93F829200AB9A6
:1035500001226A60404902228DF80020D1F88024BF
:10356000C1F8802403929A690292DA6801920022DB
:10357000C3E906226846D3E9001290473648D0F8DE
:103580001C315BB1354A5169136A99424DD992F8A1
:103590002830002B49D11146FFF78CFF2E48D0F878
:1035A0004431002B56D04FF4A271FFF77BFF2B4B19
:1035B00093F829200AB1012202609A69002A49D0B1
:1035C000586AD96800229A6105B0BDE83040FFF71B
:1035D00097BFD5F804335B07D0D5D5F80831002B59
:1035E000CCD01E4C1C482146FFF773FF636AA269CA
:1035F0009A42C3D1E369E1684BB1A3612369E360F7
:103600000023606AE3616362FFF77AFFB6E794F82C
:1036100029300BB901236B600F4B4FF40172C3F8D3
:1036200008230023606AA361EEE70B484FF48E7114
:10363000FFF738FF5369002BB0D051690291002386
:1036400091688DF80030019153616846D2E900130A
:103650009847A3E705B030BD00200040C407002014
:103660002DE9F843534D90F804802C2303FB0853B5
:10367000064693F82A300C469146002B40F096807F
:103680004D490068FFF7E6FE0746002840F09080AD
:1036900022683068511C0BD04FF0A04101239340A9
:1036A000C1F8083502F5E0734FF0030C41F823C070
:1036B00061684B1C1FBF01F5E0734FF0A04C4FF049
:1036C000000E4CF823E0A369C0F8243594F814C028
:1036D000637DBCF1010F4CEA0303C0F86C35C0F800
:1036E0001415C0F80C251DD1A268531C1FBF02F58C
:1036F000E0734FF0A0414FF0000C41F823C0E368A5
:10370000591C0BD04FF0A04C01219940CCF8081562
:1037100003F5E0714FF0030E4CF821E0C0F80835D6
:10372000C0F810252C2202FB08F2AB18C3F8049055
:103730002369AB50B9F1000F20D04FF48E71247F74
:10374000FFF7B0FE4FF4A2713068FFF7ABFE3268AE
:103750001A4BC2F80433130B42F307326101002AFB
:10376000C9B21EDB1648841884F8001301215209DF
:1037700003F01F0301FA03F340F8223033680422F8
:10378000C3F800252C2303FB08530022C3E90622BB
:1037900083F829205A61012283F82A203846BDE89F
:1037A000F883084A03F00F03D154E7E70827F5E749
:1037B0001127F3E7C4070020213500008000020034
:1037C00000E100E014ED00E0F8B503680579304C45
:1037D0000022C3F800252C2202FB05425268A2B148
:1037E0002C4AC3F808231A0B43F30733002B0CDBD6
:1037F00002F01F015B0901228A402033264941F86B
:103800002320BFF34F8FBFF36F8F0068D0F80C6594
:10381000D0F81415D0F80835D0F810254FF0FF3740
:10382000BE42C0F8147518BF06F5E076C0F80C75F6
:10383000C0F80875C0F810751EBF4FF0A0474FF0D4
:10384000020C47F826C04E1C1FBF4FF0A04601F5E2
:10385000E071022746F82170511C1FBF4FF0A041B4
:1038600002F5E072022641F822605A1C1FBF03F5E0
:10387000E0734FF0A042022142F82310FFF706FE4A
:103880002C2303FB0544002384F82A306360F8BD31
:10389000C40700208402020000E100E00279044B2A
:1038A0002C2101FB02335869003818BF01207047F2
:1038B000C40700202DE9F84F064690F80480894699
:1038C0009246FFF7EBFF044600283CD1204F2C2501
:1038D00008FB057B4FF48E71CBF814A0CBF8089051
:1038E000CBF820008BF828003068FFF7DBFD30684C
:1038F000012383605946FFF7DDFDDBF804305D46A8
:103900001BBB3068DBF814402B6A9C4211D833682B
:10391000D3F81C21002AFBD00122DA6000202C23DE
:1039200003FB087700237B61BDE8F88F95F828300A
:103930003BB9D0F81C31002BF8D05946FFF7BAFD3F
:10394000E2E70F20EBE71120EEE72046ECE700BFAF
:10395000C40700200023435082B043580193019BC9
:1039600002B070471FB501238DF80030044BCDE93C
:103970000110D3E900126846904705B05DF804FBDA
:10398000F00700207FB5434AD2F82461002E60D0B2
:1039900010464FF49271FFF7DDFF02238DF80030DF
:1039A000D2F88034C2F880340393D2F83C350293C5
:1039B000394BDA6801920022C3E906226846D3E94E
:1039C000001290473348D0F8443173B14FF4A271DC
:1039D000FFF7C0FF304B9A693AB10022C3E90622D3
:1039E000D968D0F83C05FFF7BDFF2A48D0F8203150
:1039F000ABB14FF49071FFF7ADFF0123C360264BCD
:103A00005A6962B1D0F84C150291002299688DF87C
:103A1000002001915A616846D3E9001290471D4881
:103A2000D0F858319BB14FF4AC71FFF793FF1A4BAC
:103A30005A6962B1D0F84C150291002299688DF84C
:103A4000002001915A616846D3E90012904704B002
:103A500070BDD2F81031002BB4D04FF488711046ED
:103A6000FFF778FF0C4BD2F83C0599698842A9D141
:103A7000DC69D96864B1D2F8005225F02005C2F89B
:103A800000521A699C61DA60DE61FFF76BFF99E70B
:103A90009C61FAE700200040F00700202DE9F84380
:103AA0005A4E90F80480242303FB0863044693F8DD
:103AB00020300D469146002B40F0A3805449006809
:103AC000FFF7C8FC0746002840F09D802A68206860
:103AD000511C0BD04FF0A04101239340C1F8083591
:103AE00002F5E0734FF0030C41F823C069684B1CEA
:103AF0001FBF01F5E0734FF0A04C4FF0000E4CF8E3
:103B000023E0AB69C0F8243595F814C06B7DBCF197
:103B1000010F4CEA0303C0F86C35C0F80C25C0F85F
:103B200014151DD1AA68531C1FBF02F5E0734FF096
:103B3000A0414FF0000C41F823C0EB68591C0BD09A
:103B40004FF0A04C01219940CCF8081503F5E07125
:103B50004FF0030E4CF821E0C0F80835C0F81025EE
:103B6000242202FB08F2B318C3F804902B69B35067
:103B7000B9F1000F2FD04FF488712A7FFFF7EAFECA
:103B800020684FF49071FFF7E5FE20684FF49271C2
:103B9000FFF7E0FE20684FF4A271FFF7DBFE4FF461
:103BA000AC712068FFF7D6FE23681A49C3F80413E6
:103BB000190B43F307335201002BD2B21CDB16481A
:103BC000C51885F8002301225B0901F01F0102FAE4
:103BD00001F140F8231023680822C3F800252423AC
:103BE00003FB08660023C6E906337361012386F8E8
:103BF00020303846BDE8F883084B01F00F015A54D5
:103C0000E9E70827F5E71127F3E700BFF0070020F1
:103C1000853900001003420000E100E014ED00E0EF
:103C2000F8B5444C0579242303FB054302465B6841
:103C30000068ABB1404BC0F8083340F30733002BAA
:103C40004FEA10310CDB01F01F065B090121B14086
:103C500020333A4E46F82310BFF34F8FBFF36F8FD8
:103C6000D0F8003223F02003C0F80032242303FBF5
:103C700005439B692BB14FF4A271FFF76BFE012343
:103C800043604FF4AC71FFF765FE0123C36024234A
:103C900003FB0543D0F858110029FBD0996919B1ED
:103CA000D0F844110029F5D00023C0F8003513687E
:103CB000D3F80C75D3F81465D3F80825D3F810158C
:103CC0004FF0FF3C6745C3F80CC518BF07F5E07718
:103CD000C3F814C5C3F808C5C3F810C51EBF4FF01C
:103CE000A0434FF0020C43F827C0771C1FBF4FF0D2
:103CF000A04306F5E076022743F826704E1C1FBF4E
:103D000001F5E0714FF0A043022643F82160531CF7
:103D10001FBF4FF0A04302F5E072022143F82210CA
:103D2000FFF7B4FB242303FB0544002384F8203071
:103D30006360F8BDF00700201003420000E100E0DE
:103D40000279044B242101FB02335869003818BF63
:103D500001207047F007002001F06043B3F1005FDD
:103D60002DE9F0470646884692463BD190F80490EC
:103D7000FFF7E6FF0446002836D11D4F30682425A2
:103D800005FB09754FF49071C5F814A0C5F80880BB
:103D9000FFF7E0FD4FF4AC713068FFF7DBFD3368EF
:103DA0006A69A968C3F84415C3F8482501229A60D6
:103DB0006A68DAB9D3F82021D3F858011AB9002873
:103DC000F8D00F2007E00028FBD10122DA60D3F8F9
:103DD0005821002AFBD0242303FB097700237B61B1
:103DE000BDE8F0871020FBE71120F9E72046F7E750
:103DF000F00700200220FDF7C5BF00002DE9F047C5
:103E000080460D46FDF7D0FF0328044610D8012D4B
:103E100010D0022D30D05DB91A48FEF7A0FA1A4B27
:103E200004EB440213449D78184B1B5DAB4219D040
:103E3000BDE8F087144E00EB4003F218F55C5378B0
:103E4000470053B1DFF84C900E484A464FF480418A
:103E5000FEF75CFA08B989F8008027443E440B4B12
:103E6000B2781A55002DE3D0094B1B68002BDFD028
:103E70002846BDE8F047184700EB400402480444D8
:103E80006578EFE770000020160800203108002058
:103E90002C0800201408002000780221FFF7AEBF94
:103EA00008B5094B1B7853B10020FDF741FF0120F5
:103EB000FDF73EFFBDE808400320FDF739BFBDE830
:103EC0000840FDF741BF00BF15080020F8B57A4C47
:103ED000237805461BB100232370FFF7E1FF172D60
:103EE00000F2E380DFE805F00C1717425364757F9A
:103EF000868B868B939898989898C2C7CFD7DFE324
:103F0000FFF7CEFF6D48FEF72AFA6D4B00220446FC
:103F10001A702046F8BD0020FDF7F0FEF0B1002039
:103F2000FDF706FF022D0CBF4FF4E1644FF47A64F5
:103F3000634B1D7000254FF400464FF47A702946FC
:103F40004FF4FA620023E4FB060100F015FB2A4659
:103F50000146BDE8F8405948FEF7D8B9FDF7DCFE48
:103F6000022D0CBFC8244FF4C874E1E70020FDF710
:103F7000C5FE40B10020FDF7DBFE4FF44874504B06
:103F800003221A70D6E7FDF7C7FEC824F7E7002022
:103F9000FDF7B4FE38B10020FDF7CAFE4FF47A6495
:103FA000474B0422EDE7FDF7B7FE4FF4C874F7E77F
:103FB0000020FDF7A3FE48B10020FDF7B9FE404BFD
:103FC00005221A7040F6CD410022C2E7FDF7A4FE9B
:103FD000F5E70020FDF7D6FE394B06221A700022C5
:103FE00040F26661B5E70020FDF796FE344B0722EC
:103FF0001A705AE001202070FDF7C4FEEFE701209F
:104000002070FDF7BFFE00224FF40051A1E7FDF73D
:10401000AAFE2B4B0C22EBE72A482B4EFEF79FF90A
:10402000D5F1110504461CD0D8B9012D13D0C820F4
:10403000454321464FF400474FF47A704FF4FA623B
:104040000023C5FB070100F097FA224601461D48F0
:10405000FEF75CF904460220FDF75EFE0123337093
:1040600057E70220FDF764FE0023F8E7FFF718FF8B
:10407000134B1222BCE7FFF713FF0020FDF74CFEA5
:104080000F4B1322B4E7FFF70BFF0120FDF744FEAF
:104090000B4B1422ACE7FFF703FF0020FDF73CFEBB
:1040A000074B1522A4E7FFF7FBFE002431E7FDF7DD
:1040B0005AFE034B17229BE728080020900000209F
:1040C000300800205000002015080020044B1B6819
:1040D000DB0703D5034B1878FFF7F8BE704700BF26
:1040E0002408002030080020044B1B6813F0010353
:1040F00001D0FFF7EBBE1846704700BF2408002030
:1041000038B51C4B18601C4B10F0020405461960B2
:104110001AD01A4B1A480E221A700F22DA70102287
:104120009A7111225A72042140F23332FDF768FF6E
:10413000044648B9FDF7BCFF044628B90146114AB8
:104140001148FEF7D1F80446EB0711D50120FDF721
:104150003DFE6CB921460D4A0D48FEF7C5F80446F0
:1041600030B9BDE838400B4A0B480121FEF7BCB816
:10417000204638BD240800202C0800201608002006
:10418000584A0000993E00007C4A0000CD400000E3
:10419000804A0000F53D0000784A00000E2838B53E
:1041A00002D00F281DD038BD0F4B15220E4D1A70AE
:1041B0002878FFF799FF0D4B29780D4A04460D48E2
:1041C00052F821200C491B1ADB081B0443F00300A2
:1041D000FDF734FC002CE6D02046BDE83840FDF762
:1041E0007DBF014B1622E1E7350800203C48000066
:1041F000E44C00001C480000054900004FF08043DB
:1042000001220021C3F81825C3F804119A60D3F8DD
:104210000421002AFBD0704708B505490320FFF7A9
:104220006FFF18B1BDE80840FDF758BF08BD00BFDB
:104230009D41000008B5FFF7E1FFFEF723F808B144
:10424000FDF74CFF4FF480410020FDF759FA08B10B
:10425000FDF744FFFDF798F9094B0A480A49C01ACF
:10426000C008000440F00300FDF7E4FBFFF7D4FFB3
:10427000FDF798FA0028FBD140BF20BF20BFF7E729
:104280001C4800003C480000844A00004FF0805366
:10429000D3F83001421C04BF4FF0704393F8E00F95
:1042A000831F5842584170474FF0704393F8E02FF6
:1042B000062A09D1D3F8E83FC3F30313033B042BC9
:1042C00002D8024AD05C704700207047534D00006E
:1042D000024AD2F80034002BFBD0704700E00140C6
:1042E00010B5FFF7D3FF40B14FF08053944AD3F895
:1042F0002433C3F30423C2F84035FFF7D5FF10B1D0
:10430000904B914A5A67FFF7C1FF48B14FF0805375
:104310004FF08042D3F84432C3F34233C2F83C3505
:10432000FFF7C2FF30B1894AD2F8FC3023F0807326
:10433000C2F8FC30FFF7AAFF40B14FF080430022E3
:10434000C3F80C21C3F81021C3F83825FFF7ACFFE0
:1043500020B14FF080430322C3F8A025FFF7A4FF4C
:1043600060B17B4B0522C3F810260122C3F88826D2
:104370000022C3F818263F22C3F814264FF08053BA
:10438000D3F83021511C09BF4FF07043D3F83431BA
:1043900093F8E02FD3F8E83F08BFC3F30313062ACE
:1043A0004DD1033B042B03D86A4AD35C002B46D083
:1043B0004FF08052684BD2F80414C3F82015D2F89D
:1043C0000814C3F82415D2F80C14C3F82815D2F831
:1043D0001014C3F82C15D2F81414C3F83015D2F801
:1043E0001814C3F83415D2F81C14C3F84015D2F8C9
:1043F0002014C3F84415D2F82414C3F84815D2F891
:104400002814C3F84C15D2F82C14C3F85015D2F860
:104410003014C3F85415D2F83414C3F86015D2F828
:104420003814C3F86415D2F83C14C3F86815D2F8F0
:104430004014C3F86C15D2F84424C3F87025FFF774
:1044400025FF48B14FF080534FF08042D3F85832E7
:1044500003F04F03C2F8E43EFFF718FF48B14FF0F6
:104460008043D3F80024D20744BF6FF00102C3F8A1
:1044700000244FF08053D3F83021062A0ED1D3F810
:104480003431033B042B02D8344AD35C33B1344A71
:10449000D2F83C3743F48063C2F83C372B4AD2F859
:1044A000883043F47003C2F88830BFF34F8FBFF3F6
:1044B0006F8F4FF08053D3F83021062A0FD1D3F8F5
:1044C0003431033B042B02D8264AD35C3BB14FF076
:1044D0001023D3F808224FF08043C3F858254FF03B
:1044E0001023D3F80022002A03DBD3F80432002B78
:1044F00022DA1D4901234FF01020C1F8043515249C
:10450000FFF7E6FEC0F80042FFF7E2FEC0F8044203
:10451000FFF7DEFE0023C1F80435FFF7D9FEBFF335
:104520004F8F0A49114BCA6802F4E0621343CB6013
:10453000BFF34F8F00BFFDE70D4B0E4A1A6010BD51
:104540000030014000C007400DF0ADBA00ED00E0C2
:1045500000500040444D000000C00040494D0000A4
:10456000001000404E4D000000E001400400FA053C
:10457000B00000200090D00353EA020C61D02DE976
:10458000F04BB3FA83F51E0007BFB2FA82F502FAC8
:1045900005F403FA05F41646C5F120051EBF22FAFC
:1045A00005F73C43203556EA044C4FEA144418BF43
:1045B0000134A3464FF00009C846904271EB030C4A
:1045C00039D3094207BFB0FA80F700FA07F6B1FA0B
:1045D00081F701FA07F6C7F120071EBF20FA07FC92
:1045E00046EA0C062037B6FBFBFC7F1B103F07F0AA
:1045F0001F04C4F120060CFA04F42CFA06F644BF9A
:1046000034460026202FA4BF2646002454EA060C78
:1046100008BF012418EB040849EB0609A4FB027C3F
:10462000C01B06FB02CC04FB03CC71EB0C019042D7
:1046300071EB030CC5D20B46024649464046BDE825
:10464000F08BB2FBF3F200007F2805D8034B185C17
:10465000034B5B5C1840704700207047644D0000BE
:10466000E44D0000A0F16103192B98BF203870477A
:10467000A0F14103192B98BF203070477F2805D83F
:10468000034B185C034B5B5C18407047002070477D
:10469000644D0000E44D0000A0F16103192B98BFA8
:1046A00020387047A0F14103192B98BF2030704784
:1046B0007F299ABF017001206FF02E0070475AB118
:1046C0000A787F2A0AD800B1026000211960596077
:1046D000501A18BF01207047002070476FF02E005D
:1046E0007047000008B5034B5B689B681B689847E0
:1046F00008BD00BFB400002008B50921FFF7F2FF94
:1047000008BD844640EA010313F0030F18D1844624
:10471000202A0BD32DE9F007B1E8F807A0E8F80745
:10472000A2F12002202AF7D2BDE8F007042A07D31D
:1047300051F8043B40F8043BA2F10402042AF7D2EA
:10474000002A05D011F8013B00F8013B013AF9D1EC
:10475000604670478446002A2DD010F0030F04D025
:1047600000F8011B013A26D0F7E7C9B241EA01215E
:1047700041EA0141202A12D3A2F120022DE9F003DF
:104780000B460C460D460E460F4688468946A0E865
:10479000FA03203AFBD2BDE8F00320320BD0042A02
:1047A00005D340F8041B043A05D0042AF9D200F8D6
:1047B000011B013AFBD16046704700F1010110F086
:1047C000030F11D010F8012B002A23D010F0030F93
:1047D0000AD010F8012B002A1CD010F0030F03D0D0
:1047E00010F8012B002A15D02DE970004FF001328E
:1047F0004FF0803350F8044BA4EB020525EA040582
:104800001D4000D1F6E7A0F1040070BC10F8012BA8
:0C481000002AFBD1A0EB01007047000063
:10481C003F4A000000000000464A00000000000073
:10482C004A4A0000000000004F4A0000000000004F
:10483C00CE48000000000303A8490000000000005F
:10484C00D149000000000000364A000000000000C2
:10485C00A048000000000000AC4800001C00002034
:10486C000C010020D4010020DC01002014010020E8
:04487C001800000020
:10488000FFFFFFFFFFFFFFFFFFFFFFFFFFFFFFFF38
:1048900000000000000000000000D601060100003A
:1048A000F114000055150000A11400007561727428
:1048B0005F6C6F675F6261636B656E64004261632A
:1048C0006B656E647320666C7573686564006170F7
:1048D00070000000FC0500207F0000007C06002026
:1048E0001B5B313B33316D0025734C6F6773206464
:1048F000726F70706564202825642925730D0A0085
:104900001B5B306D002573003C25733E2025733AF8
:104910002000202530327800202020007C002563F4
:10492000001B5B313B33306D001B5B313B33326D21
:10493000001B5B313B33336D001B5B313B33346D0C
:10494000001B5B313B33356D001B5B313B33366DF8
:10495000001B5B313B33376D007761726E696E67A8
:1049600000696E666F00646562756700004900004B
:1049700021490000E04800002949000031490000B9
:1049800039490000414900004949000051490000EF
:1049900000000000BE4900005949000061490000C4
:1049A00066490000111213146170705F62757474AF
:1049B0006F6E000028000020466174616C206572F3
:1049C000726F720053797374656D207265736574CC
:1049D000006170705F74696D65720000010006000F
:1049E00000000000BC060020652100005254432056
:1049F000696E7374616E636520616C726561647960
:104A000020696E697469616C697A65642E0052541C
:104A1000433A20696E697469616C697A65642E0035
:104A20000338FDD8704730313233343536373839B2
:104A3000414243444546736F72746C697374004716
:104A400050494F544500505253005541525400555F
:104A500041525445000000000D000300FD3D0000E0
:104A60000E000300FD3D00000F000300FD3D0000AF
:104A700010000300FD3D00005000002070000020E9
:104A800090000020425350206578616D706C652065
:104A9000737461727465642E004253505F494E44D2
:104AA00049434154455F49444C45004253505F4996
:104AB0004E4449434154455F5343414E4E494E474E
:104AC000004253505F494E4449434154455F41447D
:104AD000564552544953494E47004253505F494E40
:104AE0004449434154455F41445645525449534912
:104AF0004E475F57484954454C4953540042535020
:104B00005F494E4449434154455F414456455254E0
:104B10004953494E475F534C4F57004253505F49EA
:104B20004E4449434154455F4144564552544953CC
:104B3000494E475F4449524543544544004253500F
:104B40005F494E4449434154455F424F4E44494EAC
:104B500047004253505F494E4449434154455F43E7
:104B60004F4E4E4543544544004253505F494E44D6
:104B700049434154455F53454E545F4F4B004253A8
:104B8000505F494E4449434154455F53454E445F4D
:104B90004552524F52004253505F494E444943419F
:104BA00054455F5243565F4F4B004253505F494E4E
:104BB0004449434154455F5243565F4552524F5218
:104BC000004253505F494E4449434154455F46417A
:104BD00054414C5F4552524F52004253505F494E30
:104BE0004449434154455F414C4552545F30004273
:104BF00053505F494E4449434154455F414C4552EF
:104C0000545F31004253505F494E4449434154453B
:104C10005F414C4552545F32004253505F494E440D
:104C200049434154455F414C4552545F3300425320
:104C3000505F494E4449434154455F414C455254AD
:104C40005F4F4646004253505F494E4449434154EA
:104C5000455F555345525F53544154455F4F464657
:104C6000004253505F494E4449434154455F5553B8
:104C700045525F53544154455F30004253505F49A1
:104C80004E4449434154455F555345525F53544147
:104C900054455F31004253505F494E4449434154AB
:104CA000455F555345525F53544154455F3200426E
:104CB00053505F494E4449434154455F5553455213
:104CC0005F53544154455F33004253505F494E4453
:104CD00049434154455F555345525F5354415445F0
:104CE0005F4F4E00994A0000AB4A0000C14A0000E5
:104CF000DA4A0000FD4A00001B4B00003D4B00005B
:104D0000524B0000694B00007E4B0000964B0000A8
:104D1000AA4B0000C14B0000DA4B0000EF4B000033
:104D2000044C0000194C00002E4C0000454C0000C3
:104D3000614C00007B4C0000954C0000AF4C000023
:104D4000C94C000000000101010000000101000049
:104D5000000001010000000043000000504F5349D3
:104D60005800000020202020202020202068282813
:104D70002828202020202020202020202020202023
:104D800020202020481010101010101010101010AB
:104D9000101010108484848484848484848410108B
:104DA00010101010108181818181810101010101A8
:104DB00001010101010101010101010101010110D4
:104DC000101010101082828282828202020202027D
:104DD00002020202020202020202020202020210A5
:104DE000101010200007032004170201085710407C
:104DF00080000000584D00005C4E0000704F000025
:104E000053756E004D6F6E005475650057656400F4
:104E10005468750046726900536174000000000018
:104E20004A616E00466562004D6172004170720019
:104E30004D6179004A756E004A756C0041756700D6
:104E4000536570004F6374004E6F760044656300D5
:104E500000000000414D00504D000000944F000044
:104E6000904F0000904F0000904F0000904F0000C6
:104E7000904F0000904F0000904F0000904F0000B6
:104E8000904F0000FFFFFFFFFFFFFFFFFFFFFFFF4F
:104E9000FFFF0000D04E0000004E00000C4F00004D
:104EA000204E0000544E0000B44E0000644F00003D
:104EB000C04E0000256D2F25642F257900000000CD
:104EC00025612025622025652025542025590000D4
:104ED00053756E646179004D6F6E6461790054752D
:104EE0006573646179005765646E65736461790008
:104EF00054687572736461790046726964617900FF
:104F00005361747572646179000000004A616E75C6
:104F1000617279004665627275617279004D6172E5
:104F2000636800417072696C004D6179004A756E6A
:104F300065004A756C790041756775737400536537
:104F40007074656D626572004F63746F62657200A4
:104F50004E6F76656D62657200446563656D62656E
:104F60007200000025483A254D3A25530000000004
:104F70004946000065460000714600007D4600007D
:104F800099460000A5460000B1460000BF4600005B
:084F9000000000002E000000EB
:104F98000000000000200040000000000020004049
:104FA8000000000000000000FF00000000000000FA
:104FB8000000000000000000FFFFFFFFFFFFFFFFF1
:104FC80000000000000000000000000000000000D9
:104FD8000010014011000400000000000000000063
:104FE800FFFFFFFFFFFFFFFF0000000000000000C1
:104FF80000000000000000000000000000000000A9
:10500800FFFFFFFFFFFFFFFF0000000000000000A0
:105018000000000000000000000000000000000088
:10502800FFFFFFFFFFFFFFFF000000000000000080
:1050380000000000000000000090D003F44D0000C4
:10504800F44D0000F44D0000F44D0000F44D000054
:040000030000137571
:00000001FF
