:020000040006F4
:10400000000001205D4306004543060047430600CB
:10401000494306004B4306004D43060000000000E4
:104020000000000000000000000000004F430600F8
:1040300051430600000000005343060055430600AC
:104040005743060057430600796A060057430600A7
:1040500057430600574306005743060057430600E0
:1040600057430600574306005743060057430600D0
:1040700057430600574306005743060057430600C0
:10408000F5910600574306005743060057430600C4
:1040900057430600574306005743060057430600A0
:1040A0005743060057430600574306005743060090
:1040B00057430600574306000000000000000000C0
:1040C0005743060057430600574306005743060070
:1040D000598B0600574306005743060000000000B6
:1040E00000000000000000000000000000000000D0
:1040F00000000000000000000000000000000000C0
:1041000000000000000000000000000000000000AF
:10411000000000000000000000000000000000009F
:10412000000000000000000000000000000000008F
:10413000000000000000000000000000000000007F
:10414000000000000000000000000000000000006F
:10415000000000000000000000000000000000005F
:10416000000000000000000000000000000000004F
:10417000000000000000000000000000000000003F
:10418000000000000000000000000000000000002F
:10419000000000000000000000000000000000001F
:1041A000000000000000000000000000000000000F
:1041B00000000000000000000000000000000000FF
:1041C00000000000000000000000000000000000EF
:1041D00000000000000000000000000000000000DF
:1041E00000000000000000000000000000000000CF
:1041F00000000000000000000000000000000000BF
:10420000314932480A1A02D0072291438D4630497B
:1042100030480A1A06D00722914381F30988022206
:1042200082F314882C482D492D4A00F03CF82D4883
:104230002D492E4A00F037F82D482E492E4A00F01D
:1042400032F82E482E492F4A00F02DF82E482F49DB
:104250002F4A00F028F82F482F49304A00F023F861
:104260002F483049304A00F01EF8304830490022CB
:1042700000F024F82F483049002200F01FF82F4AA0
:1042800090471F481F49884205D00268043003B494
:10429000904703BCF7E700208646EC46002000214B
:1042A000274A9047FEE7884207D0521A05D0037884
:1042B00001300B700131013AF9D17047884202D0C8
:1042C00002700130FAE770470000012000F800207A
:1042D000000001200000012034F006001C00002036
:1042E00078000020B8430600B843060030BD060041
:1042F00034F006001C0000201C000020ECBD06006D
:10430000ECBD0600ECBD0600ECBD0600ECBD0600F1
:10431000ECBD0600ECBD0600ECBD060034F0060066
:1043200090F006007800002078000020780000203F
:10433000F0370020F0370020F037002085430600DA
:10434000FD740600FEE7FEE7FEE7FEE7FEE7FEE798
:10435000FEE7FEE7FEE7FEE700F002B8FFF7FCBF6E
:104360000F484FF00701884385460E4880470E48A6
:10437000016841F470010160BFF34F8FBFF36F8F8D
:10438000FFF73EBF09480A490A4A884207D0521A35
:1043900005D0037801300B700131013AF9D1704733
:1043A000000001201193060088ED00E0D8BD060052
:1043B000080000201C0000207047000007B5044BD7
:1043C0000093044A402300F032F803B05DF804FB88
:1043D000D9430600790000202DE9F84388461446A9
:1043E000B2B10F4B0F4E0325002743F001092246BF
:1043F00008EB0701002007F027FB0744241A48B9FF
:1044000033782BB14FF47A40C847013D02D1357063
:10441000BDE8F88301233370002CE8D1F8E700BF32
:10442000F0BD060078000020704707F03DBBF0B5F6
:1044300095B01D46164608460C4602F036F81A9B03
:104440000D93CDE9086500252B46082205A92046D5
:104450000A958DF82C500C9502F04EF8079B0293AC
:10446000069B03939DF814308DF8115003F003025E
:10447000012A1DD1BDF81420059DC3F3C203C2F368
:1044800083168DF81030B20008230EA9204602F0E2
:1044900033F8C5F3952508AB0093324602AB0EA95D
:1044A000284600F0DBFB204602F003F815B0F0BD13
:1044B000022AF8D1BDF81650C3F3C203C5F389151B
:1044C0008DF810300827082D2E4628BF08263B46B9
:1044D00032460EA9204602F00FF8AD1B08AB02AA27
:1044E00031460EA8374400F01DFC002DEBD1DAE771
:1044F00008B5FFF79AFF0748042100F01BFB0028CE
:1045000003DA0549412001F0E5FA044B01225A7112
:1045100008BD00BFC8BD060004BE06001C00002088
:10452000037813F0040216D003F00303012B03D029
:10453000022B09D0012070470A6800880232C0F3BC
:10454000831002440A60F5E70B684288023303EBEC
:1045500092130B60EEE71046704700002DE9F04F14
:10456000DFF828A10F4685B00446861C00201546BA
:1045700001F074FADAF804203A60DAF80830414FB2
:1045800003F580639B1AA7F10409A7F10808B34259
:104590001AD30020002D71D004F00F039B0143F0CB
:1045A000050363F30F00DAF80430C3F309020332A2
:1045B00033444AF822000020CAF8043001F05EFAC1
:1045C000012005B0BDE8F08F0121384601F0C9FA9D
:1045D000484601F0E1FA404601F0DEFADAF8080058
:1045E0000090C0F3090003300AEB80006946FFF732
:1045F00097FF009B8346C8B9C3F309020AEB820206
:10460000D16801919A1C0133C3F309030AEB8303B8
:104610000092D86801F00303012B27D0022B08D0A9
:1046200019494FF4C27001F055FA0CE0C3F30900C8
:10463000D9E7BDF80630C3F3891303334FEA104BB3
:1046400002EB93030093404601F0A9FA10B1009BDE
:10465000CAF808305946384601F083FADAF80830CB
:10466000DAF8042003F580639B1A90E7BDF8043064
:10467000C3F383134FEA104B1344E3E7A40544F05C
:10468000060090E7A811002086BE06008C010020DD
:10469000064B074810B500221A7001F0BFFE044611
:1046A00010B9044801F03CFF204610BD8C010020E9
:1046B000A0BD060008BF060030B50A4C71B10A4A19
:1046C0000A49121BD20800239A4201D1002030BDB2
:1046D00031F82350854202D00133F5E7034654F800
:1046E0003300F4E738BD0600A0BD06001C00002022
:1046F000094B013903EBC000032909D8DFE801F0B9
:104700000A02040604207047007970474079704718
:10471000002070470220704738BD06007047000037
:10472000034BD3E90130C31A58425841704700BFC8
:104730008C0100202DE9F04385B0FFF7F1FF06461C
:10474000002840F0EC80774C04F58055A861BFF359
:104750004F8FA3680093C3F30903033304EB830073
:104760006946FFF7DDFE009B10B1AA69002A5DD003
:10477000C3F30902991C013304EB8202C3F309035A
:1047800004EB8303D268DB68029302F00303022B7D
:104790000192009155D1BDF806306348C3F38918E2
:1047A0004746502F28BF502707F1080167F38F13A2
:1047B000C1F30901ADF8063001F048FE06460028B5
:1047C00000F0998001F071FE0023082201A9304613
:1047D00001F07EFE0099CB43C3F309030133C1F31B
:1047E00009010331B7EB830F4FEA830204EB810128
:1047F00024D95FFA82F90823A7EB0907304601F0B4
:1048000067FEFFB209F10803484903F0FC033A468A
:10481000304601F05DFE009B08F1030803EB9803AE
:104820000093AB69002B43D12F6954E062689A4230
:1048300091D8A260304605B0BDE8F08308233A461F
:10484000E6E7012B57D1BDF804303748C3F3831195
:10485000062928BF062161F38913023101F00F01F7
:104860008900ADF8043001F0F1FD0646002842D081
:1048700001F01BFE0023082201A9304601F028FEAA
:104880000027BDF80420C2F38312BB00974203F156
:104890000803C6D200994A1CC1F3090103310092F2
:1048A00004EB81010422304601F012FE0137E8E7F3
:1048B000304601F0FEFDFFF733FF80F00100C6B285
:1048C000B8E7FB685B7923B13B6831461B68384623
:1048D0009847FB681F68002FF3D1304601F0E9FDCF
:1048E000384601F0BBF8AB690BB9009BA360002010
:1048F00001F0C4F8DFE72C6954B90D4B0D480E499F
:10490000C01AC008000440F0020000F075F8D2E7B9
:10491000236820469B689847E3681C68ECE70026FC
:1049200088E700BF8C010020A0BD06009801002090
:1049300038BD060048BD0600F0BE06002DE9F3476D
:1049400004460F46914601A9012218461E46FFF76C
:1049500005FEDFF8A08078B3019D0023A81CB342B8
:1049600003EB000134D11F48002101F0BFF880F3B0
:10497000100A1D4B1D4A4FEA14499B1AB9EBD30F7D
:1049800004D31B4940F2A91001F0A4F86B1CC3F337
:104990000903E40008EB830304F0380449EA0A4001
:1049A000C5F3090544F00104D860033544EA8613D1
:1049B00043EA872348F8253098F800301BB1FFF709
:1049C000B9FE0028FBD1FFF7A9FE02B0BDE8F087D1
:1049D000C1F3090108EB810159F82320CA600133B2
:1049E000BDE700BFA8110020A0BD060038BD06002D
:1049F00086BE06008C01002000231A46FFF79EBFEA
:104A000007B50123019201AAFFF798FF03B05DF8F3
:104A100004FB07B5CDE9002302236A46FFF78EFFAA
:104A200003B05DF804FB1FB5CDE90123069B03939A
:104A300001AA0323FFF782FF05B05DF804FB1FB551
:104A4000CDE90023069B0293079B03936A46042348
:104A5000FFF774FF05B05DF804FB7FB5CDE90123D6
:104A6000089B0393099B04930A9B059301AA0523C2
:104A7000FFF764FF07B05DF804FB00002DE9F74382
:104A80000446D01C8846164601A900228008FFF77C
:104A900065FD264D98B3019FB81C0190C0F3090035
:104AA000C0F58063B6EB830F00F103004FEA830982
:104AB00005EB80002AD83246414607F08BF81C48A7
:104AC000002101F013F880F310007B1CC3F30903ED
:104AD000C7F30907220C05EB8303033742EA0040C2
:104AE000E400D86004F0380455F8273044F002049C
:104AF00044EA865203F47C131A4345F827202B78A6
:104B00007BB9FFF70BFE03B0BDE8F0834A46414690
:104B100007F060F8A6EB090208EB090105F10C00AB
:104B2000CBE7FFF707FE0028FBD1EAE78C01002066
:104B3000A811002030B50E4C226903460020114612
:104B400029B9D968087142B923610A6030BDC968C2
:104B50000D79854206D00968F2E7D26814680C60C6
:104B60001360F3E701300A28E9D14FF0FF30EDE799
:104B70008C11002038B5084B03F5805201251469CB
:104B80001D7004B938BDE3685D71236820465B6819
:104B90009847E3681C68F4E78C01002030B5C388AF
:104BA00085B004460D4633B1144A00921449154AA3
:104BB000284601F097F8217A05291DD0637A4BB178
:104BC000A088FFF795FD104B104953F82020284688
:104BD00001F088F8227A0E4BA08853F82220039225
:104BE0000021FFF769FD039A0A490346284605B0EC
:104BF000BDE8304001F076B805B030BD34BF0600E6
:104C00001CBF060014BF0600A4BF060062E9060030
:104C1000C8BF060039BF060007B503460846197A23
:104C2000052911D05B7A2BB1094A0A49019001F09C
:104C300059F801980849019001F054F8019803B01F
:104C40005DF804EB01F03CB8002AF8D0F2E700BFB1
:104C500034BF060062E9060031BF06002DE9F043CB
:104C600085B01F460C9D002395F80C902B730646CB
:104C70000C46904629463846FFF790FFB8F1060FDC
:104C800009D8DFE808F00412181F28334000314625
:104C9000284601F027F8002229463846FFF7BCFFD6
:104CA00085F80C9005B0BDE8F083226831462846AF
:104CB00001F018F8EFE7D4E900233146284601F067
:104CC00011F8E8E7A36800933146D4E900232846A9
:104CD00001F008F8DFE7E3680193A3680093314629
:104CE000D4E90023284600F0FDFFD4E723690293AE
:104CF000E3680193A36800933146D4E90023284672
:104D000000F0F0FFC7E76369039323690293E36848
:104D10000193A36800933146D4E90023284600F0AC
:104D2000E1FFB8E708292DE9F74F80460E46174600
:104D30001C463CD8002593F80C901D73194610466C
:104D4000FFF72CFFDFF888A0DFF888B0AE4231D93A
:104D500018F805205946204600F0C4FF0135082DFB
:104D6000F4D11949194DDFF870A0204600F0BAFFC0
:104D70004FF0000B5E4522D918F80B207E2A05D88B
:104D80001046019206F0EAFE019A00B92E22514621
:104D9000204600F0A7FF0BF1010BBBF1080FE9D192
:104DA000012221463846FFF737FF84F80C9003B004
:104DB000BDE8F08F5146204600F094FFCEE729462B
:104DC000204600F08FFFE6E74DBF06004BBF060010
:104DD00049BF060043BF06004FBF060008B54309A0
:104DE0000CBF4FF0FF33002300F01F0023FA00F048
:104DF000C30704D403494FF4F67000F06BFE4FF084
:104E0000A04008BDDCBF0600032810B5044603D946
:104E10000649412000F05EFE054B1C5D2046FFF771
:104E2000DDFF0123A340C0F80C3510BD07C006000C
:104E30005CC00600032810B5044603D90649472084
:104E400000F048FE054B1C5D2046FFF7C7FF01231D
:104E5000A340C0F8083510BD07C006005CC00600BE
:104E600008B50020FFF7E6FF0120FFF7E3FF02206F
:104E7000FFF7E0FFBDE808400320FFF7DBBFC207F4
:104E800038B5044616D51120FFF7A8FF0325C0F852
:104E900044571220FFF7A2FFC0F848571320FFF72E
:104EA0009DFFC0F84C571420FFF798FFC0F85057EB
:104EB000FFF7D6FFA30714D50D20FFF78FFF0C24B3
:104EC000C0F834470E20FFF789FFC0F838470F209D
:104ED000FFF784FFC0F83C471020FFF77FFFC0F8C2
:104EE000404738BD43689B68184708B54368083099
:104EF0005A7902F079FA002008BD2DE9F0410C46FC
:104F00009CB008461F460392FFF7ECFFD4F80480DC
:104F1000039998F80550BD4228BF3D4606462A46EB
:104F200004A802F045FA98F8052022990CA802F08E
:104F30005BFA00960CAB2A4604A904F1080003F0C2
:104F400083F9002848F2425018BF00201CB0BDE889
:104F5000F0810023C0E902328B881A44B1F906308F
:104F600002611A44C0E9001142610888003818BF84
:104F7000012070474268118838B50346002937D0B0
:104F8000148A02F1100141602CB9C2680168FFF770
:104F9000E0FF204638BD9078118900F03005302DB3
:104FA00014D1947C04F03004302C1BD19088196902
:104FB000091A19610021908AB2F91620084419696A
:104FC00001441961114459610120E3E700F0F00444
:104FD000202C07D150894143002DECD19868013035
:104FE0009860E8E700F0C000802808BF0421F3E7DC
:104FF0000846CFE770B5466804460D4663681A88D0
:10500000AA4204D19B7803F00F03082B07D1204656
:10501000FFF7B0FF6368B342F0D1002070BD0120FC
:10502000FCE743681A44426011B101399A4201D148
:105030000120704713F8010B01F8010FF6E770B576
:105040004568AA7802F00F06082E86B003461FD1E5
:1050500003691C6800260CB906B070BD236862683D
:105060009D68267329466846FFF773FF63680493BB
:1050700004F10C030593AB7803F0C003802B08BF49
:10508000231D684608BF0493FFF7D9FFA468E2E731
:1050900012F0C00122D102F0300010280CD15A6960
:1050A0001170072EEC6818690BD10146204606B036
:1050B000BDE8704000F01AB89006F2D55B6919801F
:1050C000CAE72A89214624B106B0BDE8704006F03F
:1050D00081BD06B0BDE8704006F0A5BD8029BBD1FA
:1050E0000069002192060160B6D5E7E77FB50A4660
:1050F00001466846FFF72DFF30B16846FFF79FFF76
:105100006846FFF737FFF7E707B05DF804FB8368F1
:1051100010B504460BB9002010BD03680122984762
:105120000028F8D0A368013BA360F5E72DE9F3411F
:105130000F460DF107018046FFF7E9FF054620B94C
:105140000025284602B0BDE8F0819DF907309DF8A2
:105150000740002B13DA04F07F0407260DF1070146
:105160004046FFF7D4FF0028EAD09DF8072002F060
:105170007F03B3401C43130606F1070601D43C60CD
:10518000DFE7232EEAD1DBE730B5044685B01546CC
:10519000A9B90268114B9A4211D0102D06D82A469F
:1051A00069462046FFF7F0FF05B030BD1022694682
:1051B0002046FFF7E9FF0028F6D0103DEDE7A36891
:1051C000AB4201D20020EFE723682A4620469847E9
:1051D0000028F7D0A268521BA260E5E72350060022
:1051E000F7B50E4601A907461546FFF79FFFA0B188
:1051F000019A511C4FF0000404D2B37803F0C003AD
:10520000802B01D1204608E033898B42FAD329460E
:105210003846FFF7B9FF019BEC5403B0F0BD73B5FE
:105220000D4601A906461446FFF780FF98B1019A82
:10523000B2F5803F11D2AB7803F0C003802B02F1AE
:1052400002010AD02B898B4207D32146304621F830
:10525000022BFFF799FF02B070BD0020FBE70000B2
:1052600010B5034C82600022C0E90041C26010BD4D
:10527000235006002DE9F341002580460E462F46B7
:105280002C460DF107014046FFF741FFC0B19DF8E4
:1052900007C0A4F120030CF07F02C4F1200102FA40
:1052A00003F322FA01F10B43A2401CF0800F45EA00
:1052B000020547EA030704F1070404D1C6E90057D1
:1052C00002B0BDE8F081462CDBD10020F8E737B50D
:1052D0000D4669461446FFF7CDFF70B12B89082BA8
:1052E0000DD1DDE90032C4E90032DDE9000191426F
:1052F00008BF98420CBF0120002003B030BD042B32
:1053000003D1009B23600022EFE7022B03D1009B17
:1053100023809BB2F7E7012B04D1009B237003F09D
:10532000FF03F0E70020E8E737B50D46694614466D
:10533000FFF7A0FF30B12B89082BDDE9001203D164
:10534000C4E9001203B030BD042B4FEAE17009D16B
:1053500021600B460246824208BF8B420CBF0120EF
:105360000020EFE7022B03D10BB22380DA17F2E71C
:10537000012B02D14BB22370F8E70020E2E7F7B52A
:105380001F4600233B700D460B70136001A90446B5
:105390001646FFF7CBFE30B9A36813B901233B7063
:1053A000002003B0F0BD019C002CF7D0E30804F00E
:1053B000070433602C70F4E713B50446052925D89B
:1053C000DFE801F0030F17242422012201A920465F
:1053D000FFF7DAFE18B19DF90430002BF5DB02B0BF
:1053E00010BD08220021204602B0BDE81040FFF7A2
:1053F000CBBE01A9FFF79AFE0028F0D0019A002148
:105400002046FFF7C1FEEAE70422EBE70020E6E7CB
:1054100073B50D4601A90446FFF788FE064618B984
:105420000026304602B070BD94E80F0085E80F00FA
:1054300001998A42F4D3A960A3685B1AA360F0E7DC
:105440002DE9F0435668B37813F0C00489B00746DD
:105450008C46154603D0402C69D000240CE003F0A4
:105460000F02604903F03003202B51F8228025D031
:1054700006D8E3B1102B17D0204609B0BDE8F08361
:10548000302BF9D16B6931881980072A09D121465F
:105490003289286906F0C7FB6B682969D868FFF76D
:1054A00025FE2A69696840E06B6901221A702A6941
:1054B0003146434609B0BDE8F0431847BCF1020F3E
:1054C000D5F8149024D1042A22D804A9FFF7A0FF0C
:1054D00004460028C1D0069B2BB16968B9F800309A
:1054E0004A899A4205D8059B7B60069B002BC3D056
:1054F000B3E708892A6903FB002204A8C04728B142
:10550000B9F800300133A9F80030E4E70446EAE7CF
:10551000B9F8003072899A429FD931892A69581C9A
:1055200003FB0122A9F8000031463846C1E7D2F852
:105530001080464656F8043B23B909B0BDE8F04355
:10554000FFF73ABF022914D104A9FFF761FF002831
:1055500083D0D8F800306968324604A898470446DA
:1055600000283FF47AAF069B002BF2D1059B7B60AD
:1055700082E7012926D005292CD000297FF46DAFC0
:105580000C460DF1040901340B2C3FF466AF0122E7
:1055900049463846FFF7F8FD00283FF45EAF19F999
:1055A000013B002BEFDB104B049301ABCDE905343D
:1055B000002307936968D8F80030324604A898475A
:1055C000044659E7082201A9FFF7DEFD0824002858
:1055D000E9D142E704220DEB0201FFF7D5FD0424D7
:1055E000F5E700BF6CC00600235006002DE9F04F20
:1055F00091B00446002604A8CDE90266FFF7A9FC95
:10560000A3683BBBDDE9053404A89D78FFF7B2FC35
:105610000028F7D115F0300F03D1059B1B8803B18B
:105620000134002C00F0A980630902A900229342F2
:1056300040F09C8010AA02EB830304F01F0453F88F
:10564000383CC4F120044FF0FF30E040C31A584208
:1056500058410DE00DF1030301AA0DF102012046AE
:10566000FFF78DFE38B99DF80330002BCAD100201A
:1056700011B0BDE8F08F019904A8FFF7BBFC00282A
:1056800050D1019BB3427DD3059D059A937803F0D9
:105690000F03082B7FD004A8FFF76CFC059B9D42ED
:1056A000F3D14FF0FF36019FB7426BD3089B9DF8B3
:1056B00002A0D4F808801D684FF00109A368002DEE
:1056C0005DD098459CD12B68D3F800B0BBF1000F9A
:1056D00008D053463A4629462046D8470028C6D027
:1056E000AD68EBE7D3F808B0BBF800309F42F7D1C4
:1056F0006A6859460AA8FFF72CFC6B680E9305F1FF
:105700000C030F939BF8023003F0C003802B04BFFF
:105710002B1D0E930AAA85F80C9051462046FFF7E0
:105720008FFEDBE7059B9B7813F0300F0FD1069AB5
:105730003F2A0CD8510910AB03EB810102F01F0284
:105740000123934051F8382C134341F8383CE56865
:105750002DB19DF80220019904AB2046A8479DF881
:10576000021004AA2046FFF76BFE10E051F8045B1C
:1057700001357FF47DAF013259E7012078E7984584
:105780007FF43EAF9DF802102046FFF715FE00287B
:105790007FF436AF6BE7168885E737B50C460546CC
:1057A000114620460192FFF7A1FC019A21462846A6
:1057B00003B0BDE83040FFF719BF70B586B0CE68C2
:1057C00001920C4602A90546FFF722FE68B1E06887
:1057D00058B1A378019A03F03003202B314602A878
:1057E00005D1FFF7DAFF039B6B6006B070BDFFF7D2
:1057F000FDFEF8E713B50C466946FFF73BFD60B1C7
:10580000DDE900134A0842EAC372C9074FEA5303AD
:1058100044BFD243DB43C4E9002302B010BD37B517
:105820000D4669461446FFF7E5FF70B12B89082B3A
:105830000DD1DDE90032C4E90032DDE90001914219
:1058400008BF98420CBF0120002003B030BD042BDC
:1058500003D1009B2360DA17EFE7022B03D1BDF9D8
:1058600000302380F7E7012B03D19DF9003023702E
:10587000F1E70020E9E713B504220C460DEB020125
:10588000FFF782FC08B1019B236002B010BD1146F6
:10589000FFF7F1BF13B508220C466946FFF774FC09
:1058A00018B1DDE90023C4E9002302B010BD1146A0
:1058B000FFF7F0BF4B1C30B5DB00044612F00300CD
:1058C0009BB20DD1074D2A601A44074B1A60074B53
:1058D0001870074B1870074B1C80074B198030BDA0
:1058E0000720FCE74C120020481200204412002040
:1058F0005412002050120020521200202DE9F047CF
:10590000DFF8B480B8F800308B4206460D461746E3
:1059100045D3002000F0A2F8234B244A24481978EC
:1059200000881478E3B2844238BF0133C9B234BF6F
:10593000DBB2002399422CD014781178CBB2884284
:1059400086BF0133DBB200231370002000F096F80D
:105950004FF6FF739C4224D0DFF86090D9F8002006
:105960004FEAC40A42F8347002EBC403A6B19DB1F9
:10597000104BB8F800001B682A4604FB0030314683
:1059800006F028F9D9F80030534400209D80BDE886
:10599000F0874FF6FF74D8E700209880F7E70920DA
:1059A000F5E70420F3E700BF541200204412002062
:1059B0005212002048120020501200204C120020E9
:1059C00070B5104C104D22782B789A4200D170BDE2
:1059D0000E480F4A2378126806880E4802EBC3016E
:1059E000006852F83320898803FB060090470A4973
:1059F00022780988D3B2914286BF0133DBB20023FB
:105A00002370E0E7541200204412002050120020BE
:105A10004C120020481200205212002072B6024A96
:105A2000136801331360704758120020034A13684B
:105A3000013B136003B962B6704700BF58120020E3
:105A4000EFF30583C3F308032BB9EFF31480C043CE
:105A500000F00100704701207047000008B5FFF713
:105A6000EFFF012803D00449432000F033F8BDE8DC
:105A70000840FFF7D3BF00BF90C0060008B5FFF78E
:105A8000DFFF012803D00449512000F023F8BDE8CE
:105A90000840FFF7CBBF00BF90C0060030B53AB159
:105AA0001368DB430A4D0144814204D1D84330BD21
:105AB0004FF0FF33F6E710F8012B5340082213F0A4
:105AC000010418BF2C46013A84EA5303F7D1EBE7EF
:105AD0002083B8ED07B5CDE900016A46002144F204
:105AE000020001F0E1FC03B05DF804FB10B50346D1
:105AF00053E8000F0A4643E8002494F0000FF7D162
:105B000010BD10B5034653E8000F40EA010243E818
:105B1000002494F0000FF6D110BD10B5034653E8F1
:105B2000002F42EA010043E8000494F0000FF6D190
:105B300010BD10B5034653E8000F00EA010243E828
:105B4000002494F0000FF6D110BD10B5034653E8C1
:105B5000002F02EA010043E8000494F0000FF6D1A0
:105B600010BD10B5034653E8002F02EB010043E8D7
:105B7000000494F0000FF6D110BD10B5034653E8B1
:105B8000002FA2EB010043E8000494F0000FF6D1CF
:105B900010BD0121FFF7B5BF0121FFF7BEBF0021F6
:105BA000FFF7C7BF0021FFF7D0BF000010B50446C4
:105BB000002834D003681BB91A49FF20FFF78AFF79
:105BC000636823B917494FF48070FFF783FFA36818
:105BD00023B9144940F20110FFF77CFFE36823B9B1
:105BE00010494FF48170FFF775FF238A23B90D49DF
:105BF00040F20310FFF76EFFD4E9012321689B1ADE
:105C0000DBB20A60013BDBB2FF2B226802D100202D
:105C1000107110BD1168481C10600B70F2E70E2067
:105C2000F7E700BF01C1060038B5044620B91149A5
:105C30004FF49270FFF74EFF0020FFF70FFF22682E
:105C400063681168994213D9481E106011F8013C2D
:105C5000E568218A01FB0355A36811791B1ADBB2A1
:105C6000994200D213710020FFF708FF284638BD83
:105C70000025F8E701C1060038B50C46054620B9F5
:105C80000E4940F24710FFF725FF24B90B494FF4A6
:105C9000A470FFF71FFF0020FFF7E0FE2A681368DB
:105CA000591C1160E968641A298AB4FBF1F41C706C
:105CB000BDE838400020FFF7E1BE00BF01C106008B
:105CC00010B5044618B906493120FFF703FFA26852
:105CD0002AB163692168206998470023A36010BD39
:105CE00064C106000EB433B5059D044618B91149C8
:105CF0004220FFF7EFFE63691BB90E494320FFF70F
:105D0000E9FE23681BB90B494420FFF7E3FE6368F3
:105D10001BB908494520FFF7DDFE35B106AB01AAE6
:105D200029462046019300F079F802B0BDE83040E2
:105D300003B0704764C106000A2938B504460D4611
:105D400002D10D21FFF7F8FFA3682268591CA1605A
:105D5000D554D4E901329A4204D32046BDE83840F4
:105D6000FFF7AEBF38BD00002DE9F84F9846DDE9DA
:105D70000A43154682460F460A464FF00109AA42D9
:105D80000FD2C14538BFC14613F0010B01D16CB928
:105D900000240126B8F1010F1BD908F1FF386E432A
:105DA000F8E709F10109B2FBF5F2E8E79B070ED528
:105DB000B8F1000F0CBF30262026A145E9D2013CE6
:105DC00031465046FFF7B8FF002CF6D1E0E7202619
:105DD000F3E7B7FBF6F39D42E1D9DFF83C80B7FB70
:105DE000F6F3504618F8031006FB1377FFF7A4FFED
:105DF0003346AB42B6FBF5F6F1D2BBF1000F02D051
:105E00000CB1A14501D3BDE8F88F20215046013CDB
:105E1000FFF792FFF4E700BF1DC206002DE9F74F20
:105E200088461746054620B9AF4940F25220FFF791
:105E300051FE6B6923B9AC494FF41570FFF74AFE68
:105E40002B6823B9A84940F25520FFF743FE6B6841
:105E500023B9A54940F25620FFF73CFEB8F1000FE8
:105E600000F03E8118F8011B49B92B7B002B00F094
:105E70003781284603B0BDE8F04FFFF721BF252941
:105E800040F0B780002698F800302D2B424608F1EC
:105E9000010823D0302B24D02B2B25D000242A2BF3
:105EA00002F1010123D13B681A1D1B683A601C44B2
:105EB0000A4613782E2B26D101324FF0000A1046E5
:105EC00010F8011BA1F1300CBCF1090F1DD80A23F9
:105ED00003FB0A13A3F1300A0246F0E746F001067D
:105EE000D1E746F00206CEE746F00406CBE711F80C
:105EF000013CA3F130000928DBD80A2202FB04345C
:105F0000303C0A46CBE74FF0000A12F8011B01F0C3
:105F1000FB0068289046F8D0782909D86F290CD85A
:105F2000632962D022D8252963D0582900F08880BF
:105F300098F80030002B95D197E770390829F7D8E9
:105F400001A353F821F000BFBB600600315F0600DB
:105F5000315F060051600600315F06002F600600C9
:105F6000315F0600315F060041600600642901D000
:105F70006929DDD13A68D2F80090111D89EAE972E9
:105F80003960A2EBE9724FF0010B092A35DCD345E9
:105F900038BFD3462CB1B9F1000F01DB720700D531
:105FA000013CB30702D5BAF1000F03D0F00701D4CA
:105FB0004CBB0024B9F1000F2DDAC9F100092D21E5
:105FC0002846FFF7B9FE06F00302022A04D1BAF10F
:105FD000000F01D11CBB0024CDE9004653460A2224
:105FE00049462846FFF7C0FEA2E73B681A1D19780C
:105FF0003A602846FFF7A0FE9AE70A230BF1010B4F
:10600000B2FBF3F2C1E7A345D4D220212846013CDC
:10601000FFF792FECCE77107D5D52B21D0E7A3453A
:10602000DAD230212846013CFFF786FED2E73968F4
:10603000CDE900460A1D3A6053460A220968D0E7B6
:1060400039680A1D3A60CDE9004653461022F5E74B
:106050003B681A1D3A6016F00106D3F8009024D16F
:10606000B9F1000F03D0484605F032FE0646B442AF
:106070001DD809F1FF3919F8011F00293FF458AF65
:106080002846FFF759FEF6E728460136FFF754FE8B
:1060900019F806100029F7D1A642BFF449AF202114
:1060A0002846013CFFF748FEF6E70026F0E72021EE
:1060B0002846013CFFF740FED9E73B681A1D3A60CD
:1060C000302128461C68FFF737FE78212846FFF765
:1060D00033FE00220823CDE900322146102280E75A
:1060E00003B0BDE8F08F00BFBDC1060070B50D461E
:1060F0001646044618B908495520FFF7EBFC1DB9B0
:1061000005495620FFF7E6FC2B68256031462046FE
:10611000BDE87040184700BF2DC206002DE9F041D0
:10612000DDF818800E4617461D46044618B9224968
:106130008820FFF7CFFC1FB91F498920FFF7CAFC51
:1061400023681BB91C498A20FFF7C4FC45BB1A49C8
:106150008B20FFF7BFFCB20703D017499120FFF750
:10616000B9FCBB0703D014499220FFF7B3FCE368E6
:106170009E4204D322696B1E3344934203D90E49D5
:106180009320FFF7A7FC2368CDF81880D3F80CE024
:106190003A462B4631462046F446BDE8F04160477A
:1061A00063685A68B5FBF2F302FB1353002BD2D09D
:1061B00001498E20CDE700BF2DC206002DE9F04138
:1061C0000D4616461F46044618B919499E20FFF78A
:1061D00081FC23681BB916499F20FFF77BFC1EB981
:1061E0001349A020FFF776FC63681B68013B2B4234
:1061F00003D00F49A320FFF76DFCE3689D4207D34E
:1062000063681A686B1E02FB06332269934203D946
:106210000749A520FFF75EFC2368D3F810E032465B
:106220003B4629462046F446BDE8F041604700BFA2
:106230002DC2060070B550B90E4D0F4C0026641BE0
:106240001423B4FBF3F4B44208D1002010E0036837
:10625000002BF1D0BDE87040DB6918472B6813B9FB
:1062600001361435EFE7DB69284698470028F7D058
:1062700070BD00BF080000201C000020014B4360DF
:1062800000207047A4C206000846704700207047EF
:10629000024B1868003818BF012070475C120020BC
:1062A00008B50248FFF77EFC002008BD5C12002004
:1062B00008B510461A4605F08DFC002008BD000008
:1062C0002DE9F041804686B011480F4616461D461E
:1062D000FFF75FFC0446C8B9AA083146384600F00B
:1062E000ABFB0B48FFF75EFCD8F8083053B1012236
:1062F0008DF800200C9A0592CDE90147CDE90365A0
:1063000068469847204606B0BDE8F0811124F9E7B9
:106310005C1200202DE9F043814687B014480E46F8
:1063200015469846FFF735FC0446F0B90746BD42CE
:1063300015D10F48FFF736FCD9F808305BB10222BF
:106340008DF800200022CDE90126CDE90325CDF806
:10635000148068469847204607B0BDE8F08306EBF6
:10636000073000F03BFB0137E1E71124F3E700BF02
:106370005C1200202DE9F74F99469DF830300093CC
:1063800088469346064618B92349B620FFF7A2FB74
:10639000F28871794A43043A4A4505D81E49019268
:1063A000C420FFF797FB019ADBF80070B6F806A04F
:1063B00007EB0901914209F1040488BFA2EB090728
:1063C000B4FBFAF5CBF800700AFB154445B9AAEB0B
:1063D000040BBB4528BFBB462FB903B0BDE8F08F07
:1063E0003668013DF2E7009B043408EB05003444B5
:1063F0005A466BB12146A7EB0B0705F0EBFBBA45FC
:106400005D443668D3464FF0000428BFBB46E3E73F
:1064100001462046EFE700BFD0C20600FFF7C6BB2B
:10642000F8B546790146721E0546002393422D6851
:1064300003D30024A64202D8F8BD0133F6E70F6863
:106440002846FFF719FC01343946F3E72DE9F843F4
:10645000068ACD1C0746FFF7E7FB043E3544044699
:10646000B5FBF6F5F0B14FF48073EDB28380C680D2
:10647000013D076081464FF00008A84512D238461A
:10648000FFF7D2FB064648B163790133637108F127
:106490000108C9F8000007608146EEE72046FFF7D3
:1064A000BFFF34462046BDE8F88301210430FFF7E2
:1064B00058BB10B5012104460430FFF75EFBC0B2A3
:1064C00020B92046BDE81040FFF7AABF10BD00006C
:1064D0001FB5144603920022009203AAFFF74AFF59
:1064E000039BA34203D00349F620FFF7F3FA04B05D
:1064F00010BD00BFD0C206001FB514460392012292
:10650000009203AAFFF736FF039BA34204D003497E
:106510004FF48070FFF7DEFA04B010BDD0C2060061
:10652000836800225A60C3E904229A60DA601A6024
:106530007047000010B50D49A1F58C72914201D849
:1065400000200FE08C1AE30F03EBE4035B1002EB77
:10655000C30452F83330834205D802D204F1080252
:10656000ECE7606810BD2146E8E700BFF0C7060011
:1065700008B5FFF7DFFF024B002808BF184608BD2B
:10658000C4C606002DE9F04FC9B008AA01F14005C4
:1065900014464B780E781B0443EA0663CE783343E7
:1065A0008E78043143EA06238D4244F8043BF0D14F
:1065B0001024916B16464FEAF14383EA714383EA54
:1065C0009123716A366852F8045F31440B444FEAF4
:1065D000B54181EAF51181EAD50101340B44402C23
:1065E000D363E6D1D0E914E30093836D0193C36DC7
:1065F0000293036E0393436E0493836E0593C36EFD
:106600000693DDE9057BDDE9031CDDE901592B4B30
:10661000009E079374464FF00008079B53F8042B25
:1066200007934FEAF12383EAB11383EA716A08AB57
:1066300053F828301A440AEB020327EA010A01EA58
:106640000C028AEA02021A444FEA743A86EA050307
:106650005A4423408AEAB40A06EA050B83EA0B0B84
:106660008AEAB45A08F10108DA44B8F1400F02EBA3
:106670000903BB465244A94619D172440265009AE7
:1066800022444265019A32448265029A2A44C265D4
:10669000039A1A44049B02660B444366059B6344B9
:1066A0008366069B3B44C36649B0BDE8F08F6746EE
:1066B00035468C46264619461446AEE7F0C7060016
:1066C00030B5E0B10F4A104900240025C0E9124559
:1066D000C0E914120D4C0E4A0E4DC0E916420E4A86
:1066E000C0E918520D4A826602F17452A2F52302E3
:1066F0000023A2F692420364C266184630BD0E2003
:10670000FCE700BF85AE67BB67E6096A72F36E3CC3
:106710003AF54FA57F520E518C68059BABD9831F6C
:1067200070B5F0B1DAB900201CE00C468D180026D7
:10673000AC42F8D0036C14F8012BC2540133402B47
:106740000364F5D10146FFF71DFFD0E9123213F5BE
:10675000007342F10002C0E912320664E8E7002942
:10676000E3D10E2070BD70B50D46164604460028D4
:106770007AD0002978D0036C8021372BC15403F1E3
:10678000010243D8034400F13802002101339A4248
:106790003AD1D4E91223216C0820E1FB0023C4E99B
:1067A000122312BAE26323FA00F284F83B3084F831
:1067B0003A201A0C1B0E214684F8392084F8383010
:1067C0002046FFF7DFFE691E7EB30023E26EDA404B
:1067D00001F8012FA26EDA400A71626EDA400A7285
:1067E000226EDA400A73E26DDA400A74A26DDA4072
:1067F0000A75626DDA400A76226DDA400833202B82
:106800000A77E3D1002070BD1970BFE700233F2A4B
:1068100008D921462046FFF7B5FE3822002105F0B1
:1068200002FAB6E7A3540132F1E71823226DDA40E9
:1068300001F8012F626DDA400A71A26DDA400A7226
:10684000E26DDA400A73226EDA400A74626EDA4050
:106850000A75A26EDA400A76E26EDA40083B13F15E
:10686000080F0A77E2D1CDE70E20CCE7F0B578B378
:1068700071B36BB300241C608E18DB274FF0DC0C67
:106880004FF0DD0E1A688E4202F1010400EB0205A2
:1068900004D11C60C0232B700020F0BD0D78C02DEA
:1068A00005D0DB2D0CD01C600C78845406E01C60F5
:1068B00087541A68541C1C6000F802C00131E1E7DB
:1068C0001C6085541A68541C1C6000F802E0F5E74F
:1068D0000E20E2E710B580B3D0E902239A422ED011
:1068E0000378012B0FD0022B21D053B9C02928D017
:1068F000DB2902D10123037003E04368541C846048
:106900009954112006E0DC2905D0DD290AD00223A4
:1069100003700B2010BD511C43688160C021995445
:106920000023E8E7511C81604368DB21F7E7C029B9
:10693000E7D1002303708360E3E70E20EAE7042039
:10694000E8E71846E6E700001FB503788DF8003049
:106950004368019383688DF80830C368054A039340
:10696000054B684653F8213052F82110984705B07E
:106970005DF804FB6012002064120020F0B50646AA
:106980000F4B16F804CB43F82C200E4B17460C4641
:106990000A6943F82C200FCC89B06D460FC594E8E6
:1069A0000F00002F85E80F00074ACDF810C008BF80
:1069B0003A466946304600F069F909B0F0BD00BFBB
:1069C000641200206012002049690600024AD2F8D1
:1069D0000034002BFBD0704700E001400A4908B5A5
:1069E0000223C1F80435BFF36F8FBFF34F8FC1F897
:1069F0000805FFF7EBFF0023C1F80435BFF36F8FE5
:106A0000BFF34F8F08BD00BF00E0014010B5094C37
:106A10000123C4F80435BFF36F8FBFF34F8F0160BC
:106A2000FFF7D4FF0023C4F80435BFF36F8FBFF323
:106A30004F8F10BD00E0014070B50E4E012315468A
:106A4000C6F80435BFF36F8FBFF34F8F0024AC42FD
:106A500007D10023C6F80435BFF36F8FBFF34F8F04
:106A600070BD51F8243040F82430FFF7AFFF0134F7
:106A7000EDE700BF00E0014010B5054C23681BB9ED
:106A800004495120FFF726F82368BDE81040184755
:106A900068120020F0C8060038B50D4628B90C4928
:106AA0007720FFF717F8002038BD0A4B9842FAD13B
:106AB0000020FEF7D3FF084B1C7914B901221D609A
:106AC0001A710020FEF7DAFF002CECD01120EBE762
:106AD000F0C80600002000406812002018B90649DE
:106AE0009B20FEF7F7BF054B984201BF044B0022E5
:106AF0001A601A71704700BFF0C8060000200040FD
:106B0000681200200023435082B043580193019B38
:106B100002B070471FB501238DF80030044BCDE95A
:106B20000110D3E900126846904705B05DF804FBF8
:106B30007012002008B543090CBF4FF0FF3300234B
:106B400000F01F0023FA00F0C30704D403494FF4F8
:106B5000F670FEF7BFFF4FF0A04008BDDCBF060097
:106B600010B50446FFF7E6FF04F5E074022340F891
:106B7000243010BD7FB5434AD2F82461002E60D086
:106B800010464FF49271FFF7BDFF02238DF80030DD
:106B9000D2F88034C2F880340393D2F83C350293A3
:106BA000394BDA6801920022C3E906226846D3E92C
:106BB000001290473348D0F8443173B14FF4A271BA
:106BC000FFF7A0FF304B9A693AB10022C3E90622D1
:106BD000D968D0F83C05FFF79DFF2A48D0F820314E
:106BE000ABB14FF49071FFF78DFF0123C360264BCB
:106BF0005A6962B1D0F84C150291002299688DF85B
:106C0000002001915A616846D3E9001290471D485F
:106C1000D0F858319BB14FF4AC71FFF773FF1A4BAA
:106C20005A6962B1D0F84C150291002299688DF82A
:106C3000002001915A616846D3E90012904704B0E0
:106C400070BDD2F81031002BB4D04FF488711046CB
:106C5000FFF758FF0C4BD2F83C0599698842A9D13F
:106C6000DC69D96864B1D2F8005225F02005C2F879
:106C700000521A699C61DA60DE61FFF74BFF99E709
:106C80009C61FAE700200040701200202DE9F047D7
:106C9000054692460C4619B97049CF20FEF71AFFF7
:106CA00095F804806E4E242303FB086393F820308C
:106CB000002B40F0CF806B492868FFF7EDFE0746B8
:106CC000002840F0C980D4F80090B9F1FF3F11D0FE
:106CD0004846FFF72FFF012303FA09F3D4F8009089
:106CE000C0F808354846FFF725FF09F5E07903238A
:106CF00040F82930D4F80490B9F1FF3F07D0484656
:106D0000FFF718FF09F5E079002340F829302B68D8
:106D1000A269C3F82425217D627D0A43C3F86C254E
:106D2000D4E900200129C3F80C25C3F814052AD1A1
:106D3000D4F80890B9F1FF3F07D04846FFF7FAFEB4
:106D400009F5E079002340F82930D4F80C90B9F126
:106D5000FF3F11D04846FFF7EDFE012303FA09F388
:106D6000D4F80C90C0F808354846FFF7E3FE09F563
:106D7000E079032340F82930D4E902212B68C3F8D5
:106D80000815C3F81025242303FB08F3F218C2F8F2
:106D900004A02269F250BAF1000F4AD0286894F892
:106DA0001C90314A4FF48871FFF7ACFE28684FF40D
:106DB0009071FFF7A7FE28684FF49271FFF7A2FECB
:106DC00028684FF4A271FFF79DFE28684FF4AC715C
:106DD000FFF798FE2C68B9F1070FC4F804234FEAB7
:106DE000143A44F3073403D920496B20FEF772FEAE
:106DF000002CAEBF04F160431D4B0AF00F0A4FEAAE
:106E00004919A8BF03F561435FFA89F9B4BF03F8D4
:106E10000A9083F800932B681A0B43F30733002B77
:106E200007DB02F01F0101228A405B09114941F88A
:106E300023202B680822C3F80025242303FB0866BF
:106E40000023C6E906337361012386F820303846F3
:106E5000BDE8F0870827FAE71127F8E756C90600CA
:106E600070120020756B060010034200B6C90600C0
:106E700014ED00E000E100E02DE9F8433D4D067916
:106E80000468242303FB065302465B68ABB13A4B0C
:106E9000C4F8083344F30733002B4FEA14310CDBFA
:106EA00001F01F005B09012181402033334840F885
:106EB0002310BFF34F8FBFF36F8FD4F8003223F04E
:106EC0002003C4F80032242303FB06539B6933B12B
:106ED0004FF4A2712046FFF715FE012363604FF4C3
:106EE000AC712046FFF70EFE0123E360242303FB71
:106EF0000653D4F858110029FBD0996919B1D4F878
:106F000044110029F5D00023C4F800351368D3F8E4
:106F10000C05D3F81495D3F80875D3F810854FF005
:106F2000FF329042C3F80C25C3F81425C3F8082596
:106F3000C3F8102501D0FFF713FEB9F1FF3F02D0CF
:106F40004846FFF70DFEB8F1FF3F02D04046FFF77D
:106F500007FE7B1C02D03846FFF702FE2046FFF7F3
:106F6000BDFD242303FB0655002385F820306B600C
:106F7000BDE8F883701200201003420000E100E039
:106F80000279044B242101FB02335869003818BFF1
:106F900001207047701200202DE9F047384F90F81B
:106FA0000490242303FB0973054693F82030012B3A
:106FB0008846924604D0334940F25310FEF78AFDCA
:106FC000B8F1000F04D12F494FF4AA70FEF782FDEB
:106FD000BAF1000F04D12B4940F25510FEF77AFDAB
:106FE0002B7913B9BAF1FF0F04D926494FF4AB70CE
:106FF000FEF770FD08F06043B3F1005F39D1284619
:10700000FFF7BEFF0446002835D1242606FB09768B
:107010002868C6F814A04FF49071C6F80880FFF7EE
:1070200071FD4FF4AC712868FFF76CFD2B68726935
:10703000B168C3F84415C3F8482501229A60726804
:10704000DAB9D3F82021D3F858011AB90028F8D0BA
:107050000F2007E00028FBD10122DA60D3F8582185
:10706000002AFBD0242303FB097700237B61BDE8C2
:10707000F0871020FBE71120F9E72046F7E700BF73
:107080007012002056C906002DE9F041474E0479E0
:10709000242303FB0463054693F82030012B884624
:1070A000174604D042494FF4D370FEF713FDB8F1F0
:1070B000000F04D13E4940F2A710FEF70BFD27B99F
:1070C0003B494FF4D470FEF705FD2B790BB9FF2F28
:1070D00004D9374940F2A910FEF7FCFC08F06043E0
:1070E000B3F1005F5FD1242303FB0463596821B12E
:1070F0002B684FF40472C3F80823242303FB0463B2
:107100009A6952B1DA69002A3BD021B12B684FF459
:107110000472C3F80423112031E09F61C3F80C808E
:10712000DA6128684FF48871FFF7ECFC28684FF4A7
:10713000A271FFF7E7FC2B68C3F83485C3F83875F4
:1071400022BB01221A602C79242202FB04625268BD
:107150001ABBD3F81011D3F84421D3F824011143FA
:1071600002D10028F5D00A46242303FB046600233D
:10717000984218BF03209A42B36118BF0F20BDE8A0
:10718000F081C3F81080DF610122CAE7D3F8002242
:1071900042F02002C3F80022D5E74FF40472C3F88E
:1071A00004230020EBE71020E9E700BF7012002065
:1071B00056C9060028B139B10023C1E9003018468C
:1071C000704748F21050704748F21350704730B182
:1071D000036848F240508B4208BF0020704748F2D5
:1071E0001050704728B148F21150914208BF00205A
:1071F000704748F21050704770B506460C461D4661
:10720000FFF7D8FF50B9B3794AB1AB420AD1114662
:107210002046FDF76AFE08B9044B236070BD48F2B2
:107220001050FBE748F21150F8E700BF7052464D8E
:107230002DE9F0470C4606460F492046DDE908894E
:1072400015461F46FFF7C3FFA0B963685A79494640
:1072500052004046FFF7C6FF60B94DB1CDF820801F
:107260003B462A4621463046BDE8F047FDF745BE7D
:1072700048F21050BDE8F0877052464D10B50446F4
:1072800038B149B10B684160984708B9044B236095
:1072900010BD48F20150FBE748F21050F8E700BF7C
:1072A0006E524648F0B4134648B10768094EB742DB
:1072B0000AD161B12AB14368F0BC5B68184748F253
:1072C00001531846F0BC704748F20253F9E748F200
:1072D0001053F6E76E524648F0B460B107680C4EA2
:1072E000B7420CD171B143681568DC68A5420CD374
:1072F000F0BC9B68184748F20150F0BC704748F258
:107300000250FAE748F21350F7E748F21450F4E756
:107310006E524648F7B50446DDE908671546019305
:10732000FFF7ACFF68B9019A29462046FFF7BAFF7C
:1073300038B93A463146204603B0BDE8F040FFF781
:10734000CBBF03B0F0BD0000F8B50A4F0A4C0B4E9E
:10735000E41B0123E40833700025A54203D1022376
:1073600033700020F8BD57F8353098470028F9D120
:107370000135F2E730BD060030BD06009412002052
:1073800038B50D46044618B908493320FEF7A2FB6C
:10739000691E21442046814200D238BD03780A7814
:1073A00000F8012B01F80139F5E700BFE8C9060034
:1073B00070B50D461446064618B90A494520FEF731
:1073C00089FB1DB907494620FEF784FB621E324443
:1073D000013DB24200D270BD15F8013F02F80139FB
:1073E000F7E700BFE8C9060070B5164604460D462B
:1073F000FFF7DEFF3246A919A019BDE87040FFF77C
:10740000D7BF38B50D460446FFF7BAFF29466019C5
:10741000BDE83840FFF7B4BF08B507281BD8DFE840
:1074200000F004121A1A1A041A040120FDF727FDAD
:107430000020FDF7E9FC0120FDF7E6FCBDE808406F
:107440000220FDF7F7BC0120FDF7F4FCBDE8084081
:107450000220FDF7D9BC08BD08B5FDF78BFBFDF791
:1074600069F90028FBD10D4D642445F001054FF466
:107470007A40A847013CFAD1094BD3F8F020D20753
:1074800000D500BEBFF34F8FD968064A01F4E06112
:107490000A43DA60BFF34F8F00BFFDE720CB060041
:1074A00000ED00E00400FA0507B50B46064C07495D
:1074B0000092641AE40824040246054944F00100DD
:1074C000FDF7B1FAFFF7C8FF48BD060038BD06005A
:1074D00094CA060008B50246054B064806491B1A21
:1074E000DB081B0443F00100FDF78AFAFFF7B4FF45
:1074F00048BD060038BD0600CBCA060010B501F035
:107500002FFE4FF48051002001F005FA08B1FFF77B
:10751000E1FF1548C0F5FC2101F0FDF90146002806
:10752000F5D11248124CFDF7B3F8FCF7E1FF114B0F
:107530001149E41AE408240444F00300FDF75CFA5E
:107540000E4801F09DF80028E1D1FDF7F3F800287E
:10755000FBD10B4944F00100FDF74EFAFDF7EAF8C4
:107560000028FBD1D3E700BF00400600998C06003D
:1075700048BD060038BD0600E6CA060019740600BC
:10758000F2CA06008B1802448B4200D1704713F8F0
:10759000010D02F8010DF7E70000000000000000F7
:1075A000C3F10803DB0070B50133002403A500BF5D
:1075B0005B1920C940CAAD1920C0184720C940CA6C
:1075C000754120C020C940CA754120C020C940CAA9
:1075D000754120C020C940CA754120C020C940CA99
:1075E000754120C020C940CA754120C020C940CA89
:1075F000754120C06441204670BD00BF00000000FE
:10760000C3F10803DB0070B50133002403A500BFFC
:107610005B1920C940CAAD1B20C0184720C940CA09
:10762000B54120C020C940CAB54120C020C940CAC8
:10763000B54120C020C940CAB54120C020C940CAB8
:10764000B54120C020C940CAB54120C020C940CAA8
:10765000B54120C06441B4FA84F0400970BD00BF58
:107660002DE9F04F08B4F8CA04B451F8042BA3FB79
:10767000028940F8048B4FF0000AE4FB629A4FF055
:10768000000BE5FB62AB4FF0000CE6FB62BC4FF079
:10769000000EE7FB62CE51F8042B4FF00008E3FB2D
:1076A000628940F8048BE4FB629AE5FB62ABE6FB7F
:1076B00062BCE7FB62CE51F8042B4FF00008E3FBFD
:1076C000628940F8048BE4FB629AE5FB62ABE6FB5F
:1076D00062BCE7FB62CE51F8042B4FF00008E3FBDD
:1076E000628940F8048BE4FB629AE5FB62ABE6FB3F
:1076F00062BCE7FB62CE51F8042B4FF00008E3FBBD
:10770000628940F8048BE4FB629AE5FB62ABE6FB1E
:1077100062BCE7FB62CE40F8049B40F804AB40F843
:1077200004BB40F804CB40F804EB0CBC052B00F084
:107730001E810C68A0F11400A1F11401A2F1140241
:1077400052F804EB4FF0000550F8046BE4FB6E5662
:1077500052F804EB50F8047BE4FB6E6752F804EB3C
:1077600050F8048BE4FB6E7852F804EB50F8049B5D
:10777000E4FB6E8952F804EB50F804ABE4FB6E9A1C
:10778000A0F1140052F8044B51F804EB4FF0000C38
:10779000E4FB6EC540F804CB51F804EBE4FB6E56F5
:1077A00040F8045B51F804EBE4FB6E6740F8046BAF
:1077B00051F804EBE4FB6E7840F8047B51F804EBDD
:1077C000E4FB6E8940F8048B51F804EBE4FB6E9AFD
:1077D000A0E80006062B00F0CA800C68A0F1180093
:1077E000A1F11801A2F1180252F804EB4FF00005C4
:1077F00050F8046BE4FB6E5652F804EB50F8047B2F
:10780000E4FB6E6752F804EB50F8048BE4FB6E78EF
:1078100052F804EB50F8049BE4FB6E8952F804EB39
:1078200050F804ABE4FB6E9A52F804EB50F804BB3A
:10783000E4FB6EABA0F1180052F8044B51F804EBD6
:107840004FF0000CE4FB6EC540F804CB51F804EB9C
:10785000E4FB6E5640F8045B51F804EBE4FB6E6702
:1078600040F8046B51F804EBE4FB6E7840F8047BBD
:1078700051F804EBE4FB6E8940F8048B51F804EBFB
:10788000E4FB6E9A40F8049B51F804EBE4FB6EAB0A
:10789000A0E8000C072B6AD008B40C68A0F11C000B
:1078A000A1F11C01A2F11C0252F804EB4FF00005FB
:1078B00050F8046BE4FB6E5652F804EB50F8047B6E
:1078C000E4FB6E6752F804EB50F8048BE4FB6E782F
:1078D00052F804EB50F8049BE4FB6E8952F804EB79
:1078E00050F804ABE4FB6E9A52F804EB50F804BB7A
:1078F000E4FB6EAB52F804EB50F804CBE4FB6EBC37
:10790000A0F11C0052F8044B51F804EB4FF00003B7
:10791000E4FB6E3540F8043B51F804EBE4FB6E5693
:1079200040F8045B51F804EBE4FB6E6740F8046B2D
:1079300051F804EBE4FB6E7840F8047B51F804EB5B
:10794000E4FB6E8940F8048B51F804EBE4FB6E9A7B
:1079500040F8049B51F804EBE4FB6EAB40F804AB39
:1079600051F804EBE4FB6EBCA0E8001808BCBDE8CD
:10797000F08F002310B51C465AB2914200DC10BDB6
:1079800040F823400133F7E710B500231A465CB2F4
:10799000A14203DCB2FA82F0400910BD50F8234046
:1079A00001332243F3E74A11012350F8220001F08A
:1079B0001F0103FA01F108407047013949B20A0674
:1079C000CBB205D4013900EB81025268002AF6D00F
:1079D00001335BB273B103F18042013A50F82220C7
:1079E000002022B9013B00EB431318B27047520844
:1079F0000130F6E71846704710B500235CB2A2428A
:107A000000DC10BD51F8234040F823400133F5E776
:107A100010B5013A52B2130601D5002010BD50F83E
:107A2000224051F822309C4205D802F1FF32F2D2B6
:107A30004FF0FF30F2E70120F0E700EB8101002377
:107A4000884200D3704751F8042D43EA52030B607B
:107A5000D307F5E770B59DF910401E46234605464D
:107A6000FFF79EFD30B9224629463046FFF7D0FF8A
:107A7000012807D02346324629462846BDE87040F3
:107A8000FFF7BEBD70BD70B59DF910401E46234680
:107A90000546FFF7B5FD38B123463246294628464C
:107AA000BDE87040FFF77CBD70BD2DE9F04FB5B06B
:107AB00004AD9DF9F8401F46814623462846FFF74E
:107AC000CFFD24AB21463846CDE90235FFF775FFDF
:107AD000C0EB841005B26B4203F01F034FF0200689
:107AE00095FBF6F676B205F01F0814A858BFC3F14F
:107AF00000083146FFF73DFFB8F1000F30B22DDD31
:107B000014AB002203EB8000C8F1200C1346A34203
:107B100019D327B27B00019314AB03EB870704F161
:107B2000FF3834AB012603EB8808002D53DA34AB61
:107B300003EB8606224656F8C81C4846FFF75CFF52
:107B400035B0BDE8F08F57F8236006FA08F10A4314
:107B500040F8232026FA0CF20133D8E714AB224672
:107B6000394603EB8000FFF747FFD2E70FFA82FEAA
:107B70005AF8C83C53F82EB034AB03EB820252F8EB
:107B8000803CABEB03031B1A9B4502D034BF0120A2
:107B900000205CF8C82C42F82E300131019B4AB21B
:107BA0009A42E3DB331A5E42214614A85E41FFF796
:107BB00044FF34AB03EB8403214653F8802C58F880
:107BC000803C384643EAC273013D48F8803C2DB200
:107BD000FFF733FFA9E734AB0021C6F1010C0846DB
:107BE00003EB860A03EB8C0CD8E730B51C4691B04A
:107BF000054693F900306846FFF732FDD4F8AC3003
:107C000069462846984711B030BD13460A46FFF72B
:107C1000ECBF2DE9F04793F9006092B00446894625
:107C20001046314615469846FFF7AEFE002840F054
:107C300091804246494602A8FFF7E7FF434602AA61
:107C400021460AA8FFF7D1FF02A908464246FFF7DE
:107C5000DCFF43462A4649464846FFF7C6FF08F17F
:107C60000407424629462846FFF7CFFF3B462A46EF
:107C7000214620460096FFF7EDFE3B462A46294660
:107C800028460096FFF7E6FE3B462A462146284650
:107C90000096FFF7F8FE43462A4621462046FFF7A6
:107CA000A4FF3B462246214628460096FFF7D2FE17
:107CB0003B4600962A4621462046FFF7CBFE236826
:107CC000DB074AD533463A4621462046FFF768FC93
:107CD000314682462046FFF7B0FE06F18043013B65
:107CE00054F8230040EACA7044F823004246214673
:107CF0002846FFF78AFF3B460AAA294628460096EF
:107D0000FFF7C1FE3B460AAA294628460096FFF720
:107D1000BAFE0AA908463B462A460096FFF7B3FE7C
:107D200043460AAA21462046FFF75FFF02AA3B46C8
:107D3000104621460096FFF7A6FE32462946204609
:107D4000FFF75AFE49462846FFF756FE02A9484665
:107D5000FFF752FE12B0BDE8F08731462046FFF72C
:107D60006CFEC3E72DE9F0438BB004461546894607
:107D70000AAE1C22002103A803F055FF032346F896
:107D8000203D95F900802A46494620462F1DFFF7E1
:107D90003CFF3B46324621462046CDF80080FFF7A7
:107DA00072FE2B464A4621462046FFF71EFFCDF8BD
:107DB00000803B4605F1840221462046FFF74AFE3B
:107DC0000BB0BDE8F0830000F0B5082289B00C4686
:107DD0000646FFF711FECB6A03930B6B04934B6BC4
:107DE00005938B6B0693CB6B0793002708236A469A
:107DF00069466846CDE901770097FFF7D1FB082374
:107E000005466A4631463046FFF7CAFB236B0393AB
:107E1000636B0493A36B0593E36B0544CDE90637CD
:107E20006A46082369466846FFF7BAFB08230544FB
:107E30006A4631463046FFF7B3FB236A0093636A14
:107E40000193A36A0293A36B0693E36B0793054424
:107E500008236A4631463046CDE904770397FFF799
:107E60009FFB636A0093A36AA26B0193E36A029388
:107E70000492636BE26B0393CDE90523236A0793B6
:107E8000054408236A4631463046FFF789FBE36A1A
:107E90000093236B0193636B0293236A0693A36A97
:107EA0000793054408236A4631463046CDE90477F6
:107EB0000397FFF7A5FB236B0093636B0193A36B01
:107EC0000293E36B0393636A0693E36A07932D1AA5
:107ED00008236A4631463046CDE90477FFF790FB28
:107EE000636B0093A36B0193E36B0293236A039389
:107EF000636A0493A36ACDE90537236B07932D1AB0
:107F000008236A4631463046FFF77AFBA36B00939D
:107F1000E36BCDE90137636A0393A36A0493E36AD1
:107F2000CDE90537636B07932D1A08236A4631465E
:107F30003046FFF765FB2D1A0D4C0FD435B90822DA
:107F400031462046FFF764FD01280FD00823224662
:107F500031463046FFF754FB2D1AEFE7082322463F
:107F600031463046FFF71CFB2D18F7D409B0F0BDA1
:107F70002CCB0600F0B5154689B01C4607460E46C8
:107F80001A4629466846FFF740FE23466A463946A8
:107F90003846FFF72AFE23462A4669466846FFF719
:107FA00024FE23466A4631463046FFF71EFE09B0DE
:107FB000F0BD2DE9F0438BB01446129D15F9046B0A
:107FC00000961F46804689462B460246214602A857
:107FD000FFF759FD02A9129A0846FFF716FE129BF9
:107FE00002AA41464046FFF700FE129B02AA214624
:107FF0002046FFF7FAFD2B464A463946384600969A
:10800000FFF741FD129A394602A8FFF7FEFD02A9CB
:108010002B46424608460096FFF735FD02A92B463F
:10802000224608460096FFF72EFD2B464246214683
:1080300020460096FFF727FD129B224649464846F8
:10804000FFF7D3FD2B4602AA414620460096FFF7D4
:108050001AFD129B224639463846FFF7C6FD2B46CD
:108060004A46394638460096FFF70DFD324602A9CA
:108070002046FFF7C1FC0BB0BDE8F0832DE9F047C7
:10808000B3F9024088461E4604F11F01202307343D
:1080900091FBF3F708234FFA87F994FBF3F494422A
:1080A00028BF144649460546FFF763FC2246414671
:1080B000FFF768FAB6F90230E4009C421FD9E41ACF
:1080C00005EB87010022C4F120078D420ED3243630
:1080D0004A4629463046FFF79BFC01280FD04B4605
:1080E00032462846BDE8F047FFF78ABA51F8040D3A
:1080F00020FA04F313430B6000FA07F2E5E7BDE84A
:10810000F08770B5036813F001050646144605D0E4
:1081100013460A460146FFF743FA05462146304614
:10812000FFF78BFC45B104F18042013A56F822304A
:1081300043F0004346F8223070BDF0B50F46A1B0C1
:1081400006461946384615461C46FFF71DFC20B169
:108150003046FFF70EFC21B0F0BD22463946684696
:10816000FFF74AFC294608A8FFF746FC10A821465D
:10817000FFF7FFFB012318A81093FFF7FAFB224635
:1081800008A96846FFF744FC28B9224610A93046E2
:10819000FFF732FCDFE7009BDA0709D42146684687
:1081A000FFF74BFC2246294610A8FFF7AAFFE6E797
:1081B000089BDB0707D4214608A8FFF73EFC2246B0
:1081C000294618A8F1E7002823461CDD08AA6946BD
:1081D0006846FFF715FA21466846FFF72EFC22464F
:1081E00018A910A8FFF714FC002805DA10A92346E7
:1081F0002A460846FFF7D4F910A9234618AA0846CC
:10820000FFF7FEF9CEE708A96A460846FFF7F8F936
:10821000214608A8FFF711FC224610A918A8FFF76D
:10822000F7FB002805DA18A923462A460846FFF777
:10823000B7F918A9234610AA0846FFF7E1F9BEE7E7
:108240000048704728CB06002DE9F04FEDB01F46DF
:10825000DDF8D8810590B8F9026098F90040202334
:108260001F3696FBF3F676B206F1FF3924AB0025F4
:1082700043F829506CAB03EB89034CA88A4693461C
:10828000394698F9012043F8805C43F8605CFFF7B9
:1082900079F998F9012054A8B918FFF773F9214624
:1082A0004CA8FFF771FB0746002840F02E8154A828
:1082B000FFF76AFB0290002840F0298108F12403AF
:1082C00032464CA918460393FFF7A2FB012840F061
:1082D0002081324654A90398FFF79AFB01280690A3
:1082E00040F017811CAD0CAF3346039A54A92846C1
:1082F000FFF723FF029B47F829305A46514638467C
:108300004346FFF7BBFE39463846039B00962A4694
:10831000FFF7CBFB0DF5B879039B00962A464CA9D5
:1083200014A8FFF7C2FB224648460599FFF764FBF5
:10833000A30009EB030A0793059BA100591808F154
:10834000440B5046FFF758FB594634A8FFF754FB3F
:10835000A3000BEB03013CA8FFF74EFB08F104035D
:10836000494634AA284600940493FFF78CFB5346F1
:108370004A463CA934A8CDF80080FFF71AFE2346F0
:10838000049A29462846FFF7D8FE2A465146484611
:108390004346FFF7EFFD029BCDE9083B059B3146C5
:1083A0003846CDE90A39FFF708FB3146814614A863
:1083B000FFF703FB8145B8BF81461FFA89F909F130
:1083C000FF3B0FFA8BFB59463846FFF7ECFA59464C
:1083D000071C14A818BF0127FFF7E5FA002814BFEF
:1083E000022300231F430DF1200A22465AF827706A
:1083F00024A83946FFF700FB0DF1B00BA300F918D4
:108400005846FFF7F9FA21462846FFF7B2FAA9F1D4
:108410000209069B2B600FFA89F90DF1900AB9F158
:10842000000F23DA2346049A29462846FFF785FEE3
:1084300043462A4659465046FFF79CFD3246514670
:108440000398FFF7E5FA012804D03346039A504613
:10845000FFF7D6F8013C64B24CAA23064BD5029B29
:10846000B3FA83F040096DB0BDE8F08F43462A4669
:10847000D8F8A47059465046B84749460CA8FFF7AB
:1084800092FA4946071C14A818BF0127FFF78BFA78
:10849000002814BF022300231F4308AB53F82770A2
:1084A00027B32246394634A8FFF7A6FA079B3CA813
:1084B000F918FFF7A1FA43462A463CA934A8FFF76A
:1084C00059FD049B009434AA514644A8FFF7DBFAF7
:1084D0005B4652463CA934A8CDF80080FFF769FD01
:1084E000434644AA29462846FFF77FFB09F1FF3996
:1084F0000FFA89F993E752F824105AF824304B40C8
:10850000029919430291013CA7E72846ABE7384698
:10851000A9E70298A7E713681F2B10B5144607D9DF
:1085200000220830FEF71FF908B92023236010BD90
:1085300048F21450FBE70830FEF7F2B80830FEF7B7
:10854000BFB80000014B01221A707047B816002016
:1085500008B5FCF70FFBFCF7EDF80028FBD1BFF3E3
:108560004F8F0549054BCA6802F4E0621343CB60A4
:10857000BFF34F8F00BFFDE700ED00E00400FA05F8
:1085800008B50948094B0A49C01AC008000440F060
:108590000400FCF731FA074B074800221A70BDE8C7
:1085A000084001F043BF00BF48BD060038BD0600CB
:1085B000F0CB0600B81600205185060008B5074824
:1085C000074B0849C01AC008000440F00300FCF73C
:1085D00013FABDE80840FFF7D3BF00BF48BD06004F
:1085E00038BD060006CC0600042810B5044609D89C
:1085F00002280DD812D00B4B1B6893B12046BDE862
:1086000010401847831F012BF5D8FFF7B9FFF2E799
:1086100005494FF4701000F0FFFAECE701F0FEFDA1
:10862000E9E710BDBC160020BD85060008B543096A
:108630000CBF4FF0FF33002300F01F0023FA00F0BF
:10864000C30704D403494FF4F670FDF743FA4FF023
:10865000A04008BDDCBF060008B50648064B074928
:10866000C01AC008000440F00400FCF7C5F900205F
:1086700008BD00BF48BD060038BD06001ACC060084
:10868000F8B56E4B6E4C6F49E41AE408240444F0CC
:10869000040705463846FCF7AFF96B4B10201D6008
:1086A000FFF7C4FF694BC0F84037002001F0D4FE4B
:1086B000002840F0BE8000F05DFC012800F0B28090
:1086C000022800F0B880002840F0B3804FF08043CB
:1086D000D3F8005415F4803548D04FF48032C3F8F5
:1086E000002405465A4E336A012B4DD0594944F0B7
:1086F0000300FCF781F958493846FCF77DF94FF43F
:10870000701400F08BFD554A20211820FDF7D2F897
:1087100008B1FEF7DFFE4FF08043D3F81C2502F0CE
:10872000F902B12A02BFD3F81C2502F04E02C3F8A9
:108730001C25FFF791FF00287BD12046484900F017
:108740006BFA484800F042FF002872D1464938468B
:10875000FCF752F900F0A8FDFDF732F9FBF7EAFF4C
:108760000028F7D120BF40BF20BFF3E7D3F8202572
:1087700002F0F902A92A03BFD3F8202502F056021D
:10878000C3F820250125ADE74FF440535A68374B15
:108790009A420FD1726B1DB996F86032012B09D045
:1087A00033484FF4805102F0ABFC18B9314944F022
:1087B00002009EE701F05CFFB26901461DB996F820
:1087C000A132012B05D02C4802F09AFC08B92B49A4
:1087D000EDE72B493846FCF70FF91020FFF726FF8D
:1087E000D0F81035DB0301D4264985E74FF08043EC
:1087F000D3F81C3503F0F903B12B01D122497BE7F3
:1088000001F058FEA8B9214D2870214801F00EFE54
:108810002B7823B91F4940F20620FDF75BF900F0E1
:108820003DF801E0FFF7ACFE1B4944F00100FCF706
:10883000E3F80320F8BD4FF4A02462E738BD06003A
:1088400048BD060034CC0600BC1600200C00030016
:10885000DC1F00204BCC0600E9CC0600981200205B
:10886000BD850600E985060058CD0600DBE5B1515F
:108870003C22002079CC06007D220020B4CC0600EA
:10888000DCCC06000CCD06002BCD0600B81600206F
:108890004585060068CD06004CCD060037B5164B61
:1088A000164C174D1749E41AE408240444F0040058
:1088B0004FF480520190FCF7A3F8D5F880201249BC
:1088C0000198FCF79DF84FF0FF33C5F88030C5F8EC
:1088D000803100F09EFF20B10C4944F00100FCF70C
:1088E0008BF8FBF727FF0028FBD14FF4805003B033
:1088F000BDE8304000F03CB838BD060048BD060079
:1089000000E100E0D3CD060009CE060033CE06001C
:1089100080F30888084770B5C1F30B0434BBB0F589
:10892000FE2F23D84B1E1B0B020B03EB103101262D
:108930004FF08040914201D2204670BD02F01F03EB
:10894000550906FA03F3032D05D8DFE805F0020602
:10895000090CC0F800360132ECE7C0F80436FAE73B
:10896000C0F81036F7E7C0F81436F4E70724E3E759
:1089700038B504462648C0F50021FFF7CCFF054670
:1089800068B12448244B25491B1ADB081B0443F01B
:1089900001002A46FCF734F82846FEF79BFD01F05B
:1089A00067FE1F4B9B6903F6FF7323F47F6323F07D
:1089B0000F0319180020FFF7AEFF054668B11548F0
:1089C000154B18491B1ADB081B0443F001002A460B
:1089D000FCF716F82846FEF77DFDEFF3058200232D
:1089E000D4E9005483F3148883F3108883F3118847
:1089F00083F31388C2F308021AB10B495820FDF71C
:108A000069F821462846BDE83840FFF781BF00BF1E
:108A10000040060038BD060048BD060068CE0600CE
:108A2000DC1F00209FCE0600D3CE060073B5274B77
:108A3000064627481B1ADB081B040C46324625490C
:108A400043F00400FBF7DCFFB4F1807F39D3224907
:108A50008F20FDF73FF86FF07F41A14228BF2146EC
:108A60001E4B641AD3F80455631E942B96BF96349C
:108A7000746074600D44347B25F07F4598BF963D4B
:108A8000032C03D914497720FDF724F8134E04F57D
:108A9000A8734FF4F86046F82350114B43F00103DC
:108AA0009847104BA200134400221A601B680193E0
:108AB000019B4FF4803303FA04F4C6F8044302B078
:108AC00070BD952CC7D804499020C2E748BD060068
:108AD00038BD06004ECF060064CF060000400240BD
:108AE00000D00600404102401FB518490B7853BB27
:108AF0004FF08043A024D3F81824D2035CBF012296
:108B00009A60134B0022C3F80021D3F800010390B0
:108B10000398C3F84021D3F8400102900298C3F8AB
:108B20004421D3F84401019001980A4880F8244375
:108B3000102444600220C3F8082501229A601A60BC
:108B4000C3F804030A7004B010BD00BFC4160020AF
:108B50000040024000E100E0264B2DE9F743D3F846
:108B6000042152B124490A6801320A600022C3F884
:108B70000421D3F804310093009B204D204B214C5D
:108B8000214EDFF89080DFF86C90204FED1AED0851
:108B90002D0445F004053368CBB1002333603368FE
:108BA0000193224641462846019BFBF729FF227B81
:108BB00017494FF480339340C9F8083322462846BA
:108BC000FBF71EFF616851B12046FFF72FFF043607
:108BD000BE4204F11004DED103B0BDE8F083A16809
:108BE00011B12046FFF722FF2368002BEFD09847F2
:108BF000EDE700BF00400240C016002048BD06005F
:108C000038BD060024000020404102404841024097
:108C1000ECCF0600DACF0600F8B5114B114E044632
:108C2000114837681B1ADB081B043A4643F004005E
:108C30000D460E49FBF7E4FE3A7B4FF48033934038
:108C40000B4AC2F808334CB13668FFF74DFF356068
:108C500021463046BDE8F840FFF7E8BEF8BD00BF4A
:108C600048BD06004400002038BD0600DACF0600EB
:108C70000040024070B5074B1D6804460E46A860D0
:108C8000FFF732FF2E6021462846BDE87040FFF70F
:108C9000CDBE00BF48000020034A044B1068D3F843
:108CA000043503EB00607047C0160020004002400E
:108CB000014B01221A707047C5160020224BDA6A58
:108CC000AC2A2DE9F3415F6A9D6C1FD15B6B1D449B
:108CD000FF1A1E4B1E4E1F4A1F490097F61AF60830
:108CE000360446F004082B464046FBF79CFE194824
:108CF0003A46294602F037FF044668B9174940460C
:108D0000FBF77AFE204602B0BDE8F081002DE0D1ED
:108D100001F0C2FC0546DCE711493B462A464046C5
:108D2000FBF777FEFBF706FD0028FBD100F0BCFA4D
:108D30003946284600F05CFD04460028E2D0094987
:108D400046F00100DCE700BFDC1F002038BD060054
:108D500048BD06000040060006D006003BD00600D5
:108D600072D006009FD006002DE9F04F3C4B16460E
:108D70003C4A9B1A87B0DB081B04814205460F461C
:108D8000049343F0040B08D137495846FBF734FEEF
:108D90000024204607B0BDE8F08F03D233494F20AE
:108DA000FCF798FE36B1C5F30B031BB12F495320D6
:108DB000FCF790FE7B1BB3F5805F4FEA133403D2C0
:108DC0002A495720FCF786FE00F028FA082C28BF15
:108DD000082406F6FF7923034FEA19390394059313
:108DE0000EB93446D5E7039B4B453ABFDDF80CA0DE
:108DF000DDF81480CA464FF000025146284628BFCD
:108E0000B04600F0AFFC04460028C2D11849CDF8A6
:108E100000802B463A465846FBF705FE08F1030250
:108E2000234622F003023946284600F05DFC044642
:108E30000028AED10F4A136B4344136301F0FCFAD0
:108E4000A9EB0A09A6EB0806454447440446002856
:108E5000C6D0049B084943F00100FBF7CDFD98E71D
:108E600048BD060038BD0600B9D00600C8D00600CF
:108E700041D10600DC1F002062D106002DE9F74336
:108E800001F01CFC314C324BDFF8E4903149D9F849
:108E90004860D9F83080D9F83450E41AE408240442
:108EA000074644F004000190FBF7A6FD06F50053C9
:108EB00001985A68284B9A4209D0284944F0010089
:108EC000FBF79AFD0325284603B0BDE8F083D9F8E7
:108ED0003030AB421E4404D12149FBF78DFD002503
:108EE000F1E7C3B94FF440521178142982BF1D49EC
:108EF0005269B2FBF1F206F5005198BF1A4691F89B
:108F000000C0BCF1140F82BF4969164BB1FBF3F3EB
:108F10001549FBF77EFDA5EB080202F6FF7222F46D
:108F20007F6222F00F02314607EB0800FFF71CFFBB
:108F3000054628B10D4944F00100FBF75DFDC2E78D
:108F400003B0BDE8F04301F077BA00BF48BD0600AA
:108F500038BD06009BD10600DBE5B151C0D106004B
:108F6000F4D1060040420F0006D206002FD20600C0
:108F7000DC1F00202DE9F047624B634D634E6449CE
:108F8000ED1AED082D0445F004073846FBF734FDD3
:108F9000F36AAA2B00F09A800CD8012B22D0A52BC3
:108FA00000F0888045F003005A49FBF725FD0020BA
:108FB000BDE8F087AC2BF5D157493846FBF71CFDCF
:108FC00056493846FBF718FDFFF758FF04460028BE
:108FD00000F08680524945F00100FBF70DFD4FF08F
:108FE000010823E04F493846FBF706FDD6F82490E8
:108FF000D6F848A001F03CFB346B4B4900EB040869
:109000003846FBF7F9FC316B5144884514BFA9EB96
:10901000040200224046FFF7A7FE044670B1434910
:1090200045F00100FBF7E8FC4FF00008F36A404907
:10903000224645F00100FBF7ECFC13E001F018FBC1
:1090400022464946FCF72AFDB26A904280462AD160
:1090500038493846FBF7D0FC0123C6E90783C6F838
:109060001890A0463448DFF8F49001F0BFFA0023CE
:10907000324889F8003001F0DFF999F800300446F1
:1090800023B92F4940F2A510FCF724FD8CBBB8F1A1
:10909000000F35D0336A012B32D138462949FBF70E
:1090A000ABFC022084E70346274945F00100FBF7AB
:1090B000B0FCD6E725493846FBF79EFCFFF7DEFEFD
:1090C0004FF001080446002CCCD0AFE720493846C9
:1090D000FBF792FCFFF7F2FD4FF000080446F2E7C1
:1090E000FFF7ECFD044608B11A4974E74FF0010898
:1090F000B8E745F001001849FBF77EFC032057E76D
:10910000012055E738BD060048BD0600DC1F0020E1
:1091100048D2060054D30600FDD206000BD3060049
:1091200028D3060069D2060073D206002FD20600AB
:109130006DD306008ED2060000200020B18C060000
:10914000C8D006009FD30600A3D20600EBD20600CB
:10915000F4D206003ED30600FBD30600C51600205D
:1091600010B50024D4F8F83F013304D1084940F683
:10917000F870FDF74BFCD4F8FC3F013307D1BDE894
:1091800010404FF4FC2140F6FC70FDF73FBC10BDD1
:10919000004006000A4AD2F800347BB10948002397
:1091A000D2F80815D940C90748BF03F5C07103F1CB
:1091B000010348BF42F82100072BF1D1704700BFDF
:1091C000000001403546526E08B50748074B084974
:1091D000C01AC008000440F00300FBF70DFCBDE816
:1091E0000840FFF7D7BF00BF58BD060038BD0600D6
:1091F00015D4060007B5084B0022C3F80021D3F8A8
:1092000000310193019BFBF7B5FCFBF793FA0028B3
:10921000FBD103B05DF804FB0000014037B5194DE8
:109220002B784BBB18481949194B401AC008D3F882
:109230000024000440F0030002B3D3F804451549AC
:1092400001902246FBF7DCFB40F616529442B8BF71
:109250001446A4F54864FFF79DFF01980E49224685
:10926000FBF7CEFB0D492046FFF704FD0C4B4FF4F6
:1092700080321A6001232B7003B030BD0949FBF71F
:10928000BBFBF7E7C616002058BD060038BD060038
:109290000000014023D406003CD40600C99106001A
:1092A00000E100E06ED40600034BD3F800340BB1AC
:1092B000FFF770BF704700BF000001404FF08053C0
:1092C000D3F83001421C04BF4FF0704393F8E00F15
:1092D000831F5842584170474FF0704393F8E02F76
:1092E000062A09D1D3F8E83FC3F30313033B042B49
:1092F00002D8024AD05C704700207047A3D4060011
:10930000024AD2F80034002BFBD0704700E0014045
:1093100010B5FFF7D3FF40B14FF08053944AD3F814
:109320002433C3F30423C2F84035FFF7D5FF10B14F
:10933000904B914A5A67FFF7C1FF48B14FF08053F5
:109340004FF08042D3F84432C3F34233C2F83C3585
:10935000FFF7C2FF30B1894AD2F8FC3023F08073A6
:10936000C2F8FC30FFF7AAFF40B14FF08043002263
:10937000C3F80C21C3F81021C3F83825FFF7ACFF60
:1093800020B14FF080430322C3F8A025FFF7A4FFCC
:1093900060B17B4B0522C3F810260122C3F8882652
:1093A0000022C3F818263F22C3F814264FF080533A
:1093B000D3F83021511C09BF4FF07043D3F834313A
:1093C00093F8E02FD3F8E83F08BFC3F30313062A4E
:1093D0004DD1033B042B03D86A4AD35C002B46D003
:1093E0004FF08052684BD2F80414C3F82015D2F81D
:1093F0000814C3F82415D2F80C14C3F82815D2F8B1
:109400001014C3F82C15D2F81414C3F83015D2F880
:109410001814C3F83415D2F81C14C3F84015D2F848
:109420002014C3F84415D2F82414C3F84815D2F810
:109430002814C3F84C15D2F82C14C3F85015D2F8E0
:109440003014C3F85415D2F83414C3F86015D2F8A8
:109450003814C3F86415D2F83C14C3F86815D2F870
:109460004014C3F86C15D2F84424C3F87025FFF7F4
:1094700025FF48B14FF080534FF08042D3F8583267
:1094800003F04F03C2F8E43EFFF718FF48B14FF076
:109490008043D3F80024D20744BF6FF00102C3F821
:1094A00000244FF08053D3F83021062A0ED1D3F890
:1094B0003431033B042B02D8344AD35C33B1344AF1
:1094C000D2F83C3743F48063C2F83C372B4AD2F8D9
:1094D000883043F47003C2F88830BFF34F8FBFF376
:1094E0006F8F4FF08053D3F83021062A0FD1D3F875
:1094F0003431033B042B02D8264AD35C3BB14FF0F6
:109500001023D3F808224FF08043C3F858254FF0BA
:109510001023D3F80022002A03DBD3F80432002BF7
:1095200022DA1D4901234FF01020C1F8043515241B
:10953000FFF7E6FEC0F80042FFF7E2FEC0F8044283
:10954000FFF7DEFE0023C1F80435FFF7D9FEBFF3B5
:109550004F8F0A49114BCA6802F4E0621343CB6093
:10956000BFF34F8F00BFFDE70D4B0E4A1A6010BDD1
:109570000030014000C007400DF0ADBA00ED00E042
:109580000050004094D4060000C0004099D406006A
:10959000001000409ED4060000E001400400FA05DF
:1095A0004C0000200090D003831F012B10B504460F
:1095B00002D8002000F0E0FF034B1B681BB12046DF
:1095C000BDE81040184710BDC816002038B5104B34
:1095D000104C1860104B1149E41AE408240444F0BC
:1095E0000300FBF709FA0020FFF7DEFF0C4800F04C
:1095F00089FF054620B9BDE83840094800F06CBC39
:109600000246084944F00100FBF7FAF9284638BD44
:10961000C816002048BD060038BD06005CD606000E
:10962000A99506006FD6060030B51A490B6885B0BB
:1096300004460BB1013B0B601748184A6368257854
:10964000121AD208120442F004008BB90B68144AB3
:1096500014490093012D08BF0A46A3681249FBF77D
:10966000E2F963699BB1E06805B0BDE83040184796
:109670000A68029222690192A2680A490092084A85
:10968000012D08BF0A460949FBF7E7F9E9E705B0EC
:1096900030BD00BFCC16002038BD060060BD0600FE
:1096A0009FD6060099D60600A5D60600CBD60600A2
:1096B00008B50848084B0949C01AC008000440F022
:1096C0000400FBF799F9BDE8084005490548002268
:1096D000FCF70CBD60BD060038BD060007D70600CC
:1096E000B0C20600080000202DE9F7439846174C49
:1096F000174BDFF86C90E41AE408D9F80030240422
:10970000CDE9002305460B460E4617461149024691
:1097100044F00400FBF793F929460F48CDF8008088
:109720003B463246FCF7FAFC054640B9D9F8003012
:109730000133C9F80030284603B0BDE8F083024683
:10974000064944F00200FBF75BF9F4E760BD060050
:1097500038BD06002FD706000800002072D706008B
:10976000CC1600202DE9F341134B144C144FE41A8E
:10977000E4083B680093240405460B460E469046D9
:109780001049024644F00400FBF74DF929460E4803
:1097900043463246FCF712FD054630B93B680133BB
:1097A0003B60284602B0BDE8F0810246074944F01C
:1097B0000200FBF725F9F4E738BD060060BD06009E
:1097C000CC1600209FD7060008000020DCD706003A
:1097D000014B18700B207047D0160020024B00225E
:1097E00018781A70704700BFD016002018DF704735
:1097F00030B585B0054610220C466846002102F0BF
:1098000012FAA408684601950294FFF7EFFF05B02D
:1098100030BD30B585B0062300244FF4805568462E
:10982000CDE90035CDE90244FFF7E0FF072802BF8C
:109830004FF0005320461D6005B030BD084B09486D
:109840000949C01A10B5C008000440F00400FBF735
:10985000D3F8064BBDE810401B680620184700BF30
:1098600038BD060068BD060017D80600DC160020CB
:109870000A2803D90B38C0B2FFF7AABF704700000F
:1098800070B5054686B00020FCF7D4FC0146A0B1B7
:10989000274A18212846FCF731F800283DD0254AF0
:1098A000254B26499B1ADB081B04024643F00100A6
:1098B00006B0BDE87040FBF7A3B81822684602F076
:1098C000B2F904231C4C8DF800301A4B1C4EE41ADC
:1098D0001C4B1A6D3368E40824049A4244F00404D3
:1098E0001DD119492046FBF787F8184B31681868D5
:1098F00001F01CFE8DF80100FFF7BAFFD5E9011356
:109900008DF8010068469847114800F095FD9DF8D4
:10991000012010492046FBF773F806B070BD012303
:109920008DF801306846D5E901139847EFE700BF8D
:109930008198060038BD060068BD06004BD80600B9
:10994000D4160020DC1F002074D80600D816002092
:109950003D980600A3D806002DE9F041836888B041
:10996000044623B9A74940F2CF20FCF7B3F81822E8
:10997000002102A802F057F9A34EA44B22788DF8DB
:109980000820F61AF608012736048DF8097046F00B
:1099900004050C2A00F24D82DFE812F00D00AE0043
:1099A000A000AE00AE004B02AE009800AE009000EA
:1099B00026003D00A50096492846FBF71DF88DF8C6
:1099C0000C709DF8092093492846FBF719F8D4E953
:1099D000011302A898479DF80930012B00F013826B
:1099E0008D4B05201B680DE28C492846FBF704F8D7
:1099F0004FF08053D3F800210392D3F8042104924E
:109A0000D3F80C2192020692D3F81021920205920B
:109A10001B690793D5E78249824E2846FAF7ECFF87
:109A2000227C81492846FAF7EBFF4FF44053326A13
:109A300058687E49884214BF01230223012A4FF04F
:109A400001028DF80920227C08BF013352B902239C
:109A50008DF80C30F3680493754B0593C3F5FC2324
:109A60000693AEE7012A12D1884210D100234FF4A9
:109A700040528DF80C301178142988BF5369049333
:109A80004FF4805305934FF440539B68E8E79A42A4
:109A900009D201238DF80C30B368049300F00CFE5A
:109AA000B3690590DCE763492846FAF7A5FFFF2371
:109AB0008DF80C300023CDE90433D1E75E49284608
:109AC000FAF79AFF237C8DF80C307AE75B49284639
:109AD000FAF792FF238AADF80C3072E7584928460E
